:100000000C943A000C9457000C9457000C94570031
:100010000C9457000C9457000C9457000C94570004
:100020000C9457000C9457000C9457000C945700F4
:100030000C9457000C9457000C9457000C945700E4
:100040000C9457000C9457000C9457000C945700D4
:100050000C9457000C9457000C9457000C945700C4
:100060000C9457000C9457000C9457000C945700B4
:100070000C94570011241FBECFEFD4E0DEBFCDBFDC
:1000800013E0A0E0B1E0E2E4F8E102C005900D92D7
:10009000A038B107D9F713E0A0E8B3E001C01D9282
:1000A000A73CB107E1F70E94E9090C941F0C0C94DE
:1000B00000008091A8039091A9038530910539F043
:1000C000069759F480E091E00E94A60906C060E816
:1000D00073E083EA93E00E9470090C949707CF9332
:1000E000DF93CDB7DEB7AC970FB6F894DEBF0FBE87
:1000F000CDBF8091A8039091A903059799F560E879
:1001000073E083EA93E00E94D90883EA93E00E94B7
:100110003A09882339F187E090E09093A90380930E
:10012000A80381E090E00E94880762E473E0CE01BA
:1001300001960E94090CCE010196BC010196FB01BB
:1001400020812111FACF40E08091A6030E94B309DB
:100150000E947406CE0101960E94730783EA93E021
:100160000E949508AC960FB6F894DEBF0FBECDBFC7
:10017000DF91CF9108958091A8039091A9038630D3
:10018000910561F08730910531F00597F1F480E831
:1001900093E00C944E098DE20C946E090E94650860
:1001A0008D3299F488E090E09093A9038093A8039E
:1001B0000E94740686E593E00E94730781E090E058
:1001C0000E94880780E00C946B0408950E94D80375
:1001D00084E00E94A803882309F440C08091A8030A
:1001E0009091A90386309105E9F040F483309105A0
:1001F00071F0049799F586E090E00BC08730910587
:1002000019F00897F9F02AC080E893E018C085E05B
:1002100090E09093A9038093A80385E593E00E9462
:1002200073071CC080E091E00E945B0817C0119228
:100230002150E9F7079623E0833A920719F0FC0171
:1002400027E0F5CF0E94740682E693E00E947307D0
:1002500081E090E09093A9038093A80380E00E943E
:10026000A803882351F18091A8039091A9038430B9
:10027000910599F038F4019701F580E090E00E9433
:1002800088070BC08530910599F00697B1F460E0BE
:1002900080E091E00E944A0810C083E090E09093D3
:1002A000A9038093A8038CE793E00E94730705C01D
:1002B00060E083EA93E00E94AC0882E00E94A80319
:1002C000882351F18091A8039091A903833091056F
:1002D00099F038F4019701F580E090E00E948807DA
:1002E0000BC08530910599F00697B1F461E080E08C
:1002F00091E00E944A0810C084E090E09093A90326
:100300008093A8038EE793E00E94730705C061E025
:1003100083EA93E00E94AC0881E00E94A80388234E
:10032000A1F08091A8039091A9038530910541F037
:10033000069759F462E080E091E00E944A0805C007
:1003400062E083EA93E00E94AC0883E00E94A80385
:100350008823A1F08091A8039091A903853091058D
:1003600019F0069731F0089563E083EA93E00C9466
:10037000AC0863E080E091E00C944A080895109284
:10038000800084E0809381001092850010928400A8
:10039000089580918400909185000895AC0180912A
:1003A0008400909185009C01241B350B283E33402E
:1003B000B0F708952091840030918500820F931F3B
:1003C0000C94CE01E1E6F0E080E880831082A895ED
:1003D00084B7877F84BFE0E6F0E080818861808316
:1003E0001082089581110CC08091AA03882329F0FE
:1003F0008091AB0391E0892701C080E0817008956E
:1004000080E0089581110AC08091AA03811103C080
:100410008091AB0301C080E08170089580E0089571
:10042000811103C08091AA03089580E0089581118D
:1004300005C08091AA0391E08927089580E008957E
:10044000EAEAF3E080818093AB0389B1881F8827B3
:10045000881F8083089557985F9808958530A0F489
:10046000673090F421E030E0062E01C0220F0A949C
:10047000EAF7E82FF0E0E355FC4F822F809590815A
:1004800089234111822B80830895853088F4673059
:1004900078F4E82FF0E0E355FC4F21E030E0062E41
:1004A00001C0220F0A94EAF79081922381E009F4B7
:1004B00080E008956091AC03E62FF0E0E355FC4F37
:1004C00080810E94A9028091AC038F5F853018F46F
:1004D0008093AC0308951092AC0308951092AD037D
:1004E0001092AE031092AF031092B0031092B103BA
:1004F00008950E9487020C946E02FC01FF2784A1DC
:10050000892B84A385A1892B85A381E00895CF93AE
:10051000DF93C5E2D3E0899199910E947D0283E047
:10052000C333D807C1F783E090E40E947D0280E0E6
:1005300090E80E947D0283E090E10E947D0283E0CA
:1005400090E80E947D0283E090E2DF91CF910C94CD
:100550007D02E091B203F0E0EE0FFF1FE55EFC4F7D
:1005600020813181F901FF2795A1932B95A3E5E225
:10057000F3E020813181D901BB2780FF07C0959628
:100580002C919597932F9095922304C095969C91CA
:100590009597932B95969C938695329693E0E333AB
:1005A000F90739F7E62FF0E0EE0FFF1FE55EFC4F8D
:1005B00080819181FC01FF2725A1892F80958223CD
:1005C00085A36093B2030895009789F0FC0123810D
:1005D000621B67FD09C0772767FD7095248130E0B5
:1005E00081E0621773070CF080E08170089580E06D
:1005F0000895CF93DF93FC01822F309789F1918189
:10060000491770F52281821758F52381621B67FD17
:1006100027C0A62FBB27A7FDB095C481D0E0AC179B
:10062000BD07F4F4692F0E94530A480F658170E0FA
:10063000CD010E945C0ADC011696842F8695869572
:100640008695AE0FBF1FA80FB11D2C9130E04770EB
:1006500002C0359527954A95E2F7822F817001C037
:1006600080E0DF91CF910895182F092FF62E0E9478
:10067000BF010E94C901C12FD02F8E819F810E948E
:10068000CE01E881F9818A819B8109952E813F8184
:100690008C819D81280F391F3F832E830E94C901C1
:1006A000E12FF02F2FEF3FEF60E06F1531F3AE2F0A
:1006B0007F2F468157816C01C41AD50AA601BFEF6E
:1006C000CB16BFE7DB0610F4EF01D7CF519541956C
:1006D00051094217530718F0A901AC2F7D2F6F5F06
:1006E00038969A01CA2FD72FE0CF6230710511F1E9
:1006F00060F46130710551F5FC01FF2784A19095EC
:10070000892384A385A189231EC06330710541F02C
:1007100064307105D9F4FC01FF2784A1892B10C036
:10072000FC01FF2784A1892B84A325A1892F809513
:10073000822309C0FC01FF2784A1292F2095822351
:1007400084A385A1892B85A381E0089580E0089585
:10075000E82FF0E0EE0FFF1FED54FC4F808188235F
:1007600021F0818191E0892701C080E081700895A6
:10077000E82FF0E0EE0FFF1FED54FC4F8081811158
:1007800002C0818101C080E081700895E82FF0E00F
:10079000EE0FFF1FED54FC4F80810895E82FF0E02D
:1007A000EE0FFF1FED54FC4F908181E089270895E3
:1007B0004F925F927F928F929F92AF92BF92CF9211
:1007C000DF92EF92FF920F931F93CF93DF9300D0AE
:1007D000CDB7DEB753EB452E53E0552E64EBE62E36
:1007E00063E0F62E73E3A72E73E0B72EE6E07E2ECD
:1007F000F2018081F7018083F501019111915F0180
:100800006801DD24F60184A1812E992425A130E020
:100810002821392141E0232B09F440E090E0882190
:100820009921892B29F0442341F024E030E00AC0CB
:10083000442331F022E030E005C023E030E002C084
:1008400021E030E064E070E0C80129833A830E942F
:10085000750362E070E0C8010E947503872D8A95D8
:10086000F1F7F60183A190E08821992141E02981E7
:100870003A81892B09F040E0F2014083B901C801B7
:100880000E947503F2E04F0E511C82E0E80EF11C4D
:10089000EDEB4E16E3E05E0609F0AACF0F900F9045
:1008A000DF91CF911F910F91FF90EF90DF90CF904C
:1008B000BF90AF909F908F907F905F904F900895E2
:1008C00008950C9464050C9485050C946A050C94A9
:1008D00070050C9476050E9476050E9470058823A9
:1008E000E1F38CE291E00197F1F70E946405811138
:1008F0000C94630408950C948C05CF93DF9300D07F
:100900001F92CDB7DEB780ED90E09A83898388E0AF
:100910008B83509A589A0E9439058FE690E00E9486
:10092000D00481E090E00E94280561E070E081E061
:1009300090E00E9414050E940005CE0101960E94DD
:100940004C050F900F900F90DF91CF910895CF93AA
:10095000DF93D62FFB0160E070E0A1E0B0E05E2FF6
:100960005D1B5417B8F4C191BD010C2E02C0660F77
:10097000771F0A94E2F76F5F7F4F76956795680F50
:10098000791F02C076956795CA95E2F76F3F7105AA
:1009900009F028F7F9016083852FDF91CF91089541
:1009A000CF93DF931F92CDB7DEB79E012F5F3F4FEE
:1009B00045E06DE373E00E94A70491E0980F9093E7
:1009C00002019981915097BD18BC95B5977039F087
:1009D00025B5909102019770287F922B95BD2981B2
:1009E00030E0E82FF0E0E35CFC4FC901008002C07A
:1009F000880F991F0A94E2F70F90DF91CF91089525
:100A000085B3897F85BB95B5809102018770987FFA
:100A1000892B85BD089585B5887F85BD089585B3EB
:100A200082FB882780F90895009719F0019741F01B
:100A3000089584B56295660F660F607C8F7305C05C
:100A400084B563706295607F8F7C682B64BD089568
:100A5000009741F0019759F484B58E7F84BD84B529
:100A6000826002C084B58C7F84BD81E0089580E0FF
:100A7000089514BC15BC16BC18BC81E090E00E941F
:100A8000280581E008959C01215031093093CD0063
:100A900081508093CC000895CF93DF93EC0188813F
:100AA00099810E9443058A819BEF980F943008F04A
:100AB00088E098E19093C9008550880F8093CA0020
:100AC00081E0DF91CF9108958091C800881F882729
:100AD000881F08958091C80085FB882780F90895B4
:100AE0008091C80086FB882780F90895CF93C82F8E
:100AF0000E946A058823E1F39091C8009064909366
:100B0000C800C093CE00CF9108958091C80087FFA0
:100B1000FCCF8091CE000895CF93DF93EC018991B3
:100B2000882319F00E947605FACFDF91CF910895BE
:100B3000CF93DF93EC010E94BF019E0140E050E0A3
:100B400062E17AE780E090E00E94A10A3093C0035E
:100B50002093BF03DF91CF9108958091BD039091C1
:100B6000BE030E94CE018091BD039091BE032091EF
:100B7000BF033091C003820F931F9093BE038093F5
:100B8000BD03089541E0611101C040E0692F0C945C
:100B90002E02692F0C94450241E0611101C040E032
:100BA000692F0C942E026F927F928F929F92AF9238
:100BB000BF92CF92DF92EF92FF920F931F93CF934A
:100BC000DF931F92CDB7DEB7862EB42E6C01862F31
:100BD000992787FD90958C199109C7FC9395072F4C
:100BE000112707FD10950D191109D7FC139597FDD5
:100BF00003C0AA24A39402C0AA24AA9417FD03C088
:100C00009924939402C099249A943C0197FF03C0BD
:100C100071946194710817FF03C011950195110932
:100C20006016710694F07301F594E794C81409F105
:100C30006B2DC6010E94CC05E01AF10AF7FE03C035
:100C4000E60CF71CD90CCA0CF1CF7801F594E794A7
:100C5000D71679F06B2DC60179830E94CC05E61872
:100C6000F7087981F7FE03C0E00EF11ECA0CD90C1B
:100C7000EFCF6B2DC6010F90DF91CF911F910F9198
:100C8000FF90EF90DF90CF90BF90AF909F908F90AC
:100C90007F906F900C94CC05FF920F931F93CF938E
:100CA000DF93182FF92E062FC72FD42F792F0E94EC
:100CB000D3054D2F612F7C2F812F9F2D0E94D305AF
:100CC0004D2F602F7C2F802F9F2D0E94D3054D2FFD
:100CD000602F7C2F812F9C2F0E94D305DF91CF9115
:100CE0001F910F91FF9008950E946E0210921401BF
:100CF00010920F010895DF92EF92FF920F931F93CE
:100D0000CF93DF93E82E8B01F62ED12E2091050193
:100D100030910601D0E02130310599F5D12EDD1A50
:100D2000E0910B01F0910C018181C0E0D817B8F47B
:100D3000E0910B01F0910C018281C81770F42C2F07
:100D40004D2F6E2DCF010E94F902682F8C2F800F3E
:100D50009D2D0E94CC05CF5FEBCFDF5FDFCFE09111
:100D60000B01F0910C018281C81740F460E08C2FD8
:100D7000800F9D2D0E94CC05CF5FF1CFDA9430C05B
:100D8000DF5FFD2EF00EE0910B01F0910C018181EF
:100D9000C0E0D817A8F4E0910B01F0910C0182811A
:100DA000C81770F72C2F4D2F6E2DCF010E94F9021E
:100DB000682F8F2D9C2F910F0E94CC05CF5FEBCF1A
:100DC000E0910B01F0910C018281C81740F460E0C2
:100DD0008F2D9C2F910F0E94CC05CF5FF1CFF39404
:100DE0008F2D9D2DDF91CF911F910F91FF90EF904F
:100DF000DF9008951F93CF93DF93182FEC019C2F62
:100E0000911B8991882349F00E947B06BC019C2F8D
:100E1000911B653014F477FFF2CF892FDF91CF91CA
:100E20001F9108950F931F93CF93DF93EC019B01C4
:100E300010920F01409310011092130100910B01C9
:100E400010910C010115110509F448C0F8018181C8
:100E50006091090170910A0190E00E945C0ABC0156
:100E600080910D0190910E010E94790ACB016AE0F8
:100E700070E00E945C0A90931201809311013093FC
:100E800008012093070140E250E0BE0184E191E0B7
:100E90000E94100C80910301909104010197F1F4DC
:100EA000FE0101900020E9F7CF010197F80161816F
:100EB00070E06F5F7F4F8C1B0E94530A815020911E
:100EC0000501309106012130310511F497E001C090
:100ED00095E0981718F48EEF80931301DF91CF916E
:100EE0001F910F9108952091050130910601213045
:100EF000310511F476E001C070E04FEF60E00E9430
:100F00001207089590E090930A01809309010895D3
:100F100090930401809303010895909306018093B8
:100F20000501089590930C0180930B010895CF93D0
:100F30008091C1039091C20301969093C203809364
:100F4000C10320911101309112018217930708F417
:100F500068C01092C2031092C103E0910F01F0E04B
:100F6000ED5FFE4F818981110AC0809110018230AE
:100F700008F457C081508093100110920F01C09166
:100F80000F018C2F90E0FC01ED5FFE4F21892223A1
:100F900009F447C0209103013091040140911301ED
:100FA0002115310521F02130310589F022C0411190
:100FB00020C060910701709108018C5E9E4F0E94D5
:100FC000FA069FEF9C0F980F90930F0112C060914B
:100FD000070170910801209105013091060121302F
:100FE000310511F4740F01C0641B8C5E9E4F0E948A
:100FF000FA06209113012F5F20931301332727FD59
:101000003095E0910B01F0910C01818190E0821705
:1010100093073CF41092130180910F018F5F80932E
:101020000F01CF910C945A0290930E0180930D0101
:101030000E94790284E190E090930A018093090173
:101040000C947406FC01808190E0019665E070E0EC
:101050000E948D0A80830895FC01808190E00496AF
:1010600065E070E00E948D0A80830895FC01818113
:1010700090E0069667E070E00E948D0A81830895F3
:10108000FC01818190E0019667E070E00E948D0A8A
:1010900081830895611102C00C943608623011F406
:1010A0000C942208613011F40C944008633011F460
:1010B0000C942C080895FC0190819F5F818165E06C
:1010C0000E94530A890F0C946B040E9461048111E1
:1010D0000C94630480E008950F931F93CF93DF93E4
:1010E000EC0184E090E00E94E20A8C0184E090E050
:1010F0000E94E20AFC0182E0D8018C9393E01196F1
:101100009C9311971396FC93EE931297808384E03F
:10111000818313821282198308831A821B821C82A4
:10112000DF91CF911F910F9108950F931F93CF934C
:10113000DF93EC01E881F981309739F00281138166
:10114000CF010E947A0BF801F7CFCE01DF91CF914A
:101150001F910F910C946C08FC0164830895CF9348
:10116000DF93DC01FB01CD91DC91119788819927F8
:1011700087FD909567E070E00E945C0AE80FF91F18
:101180008981E80FF11D87FDFA958081882371F030
:10119000108212968C9112978F5F12968C931297F1
:1011A00013968C9113978F5F13968C93DF91CF9149
:1011B00008950F931F93CF93DF93EC018B0184E08D
:1011C00090E00E94E20AFC01A881B9813C9111964D
:1011D0002C918C818130C9F044F4811126C0822F7A
:1011E000992787FD9095069615C0823041F083308F
:1011F000E1F4832F992787FD9095049611C0832FE2
:10120000992787FD909501960BC0822F992787FD1E
:101210009095019667E070E00E948D0A282F05C026
:1012200065E070E00E948D0A382F30832183888129
:10123000998193838283F983E8838A8118161CF449
:1012400081508A830FC0DF0182819381009719F05A
:10125000DF01FC01F9CF13961C921E921297CF0169
:101260000E947A0BB801CE01DF91CF911F910F91AF
:101270000C94AF08DC01ED91FC918081918102809A
:10128000F381E02D309741F020812813F8CF2181A0
:101290002913F5CF81E0089580E00895CF93DF937F
:1012A000EC010E9461048823B1F00E94630493E280
:1012B000981B892F65E00E946D0A282F892F90E0E6
:1012C00067E070E00E945C0AFE01E80FF91FE20F80
:1012D000F11D81E08083DF91CF9108950C946B0420
:1012E000EF92FF920F931F93CF93DF93162F072F49
:1012F000FC01C081D1810E947406209749F061E011
:10130000888199810E94CC050A80DB81C02DF5CFB0
:10131000C12FD02FE12C8E01F12CF80181918F018A
:10132000813021F461E0C7010E94CC05F394F7E01D
:10133000FF12F3CFE394279685E0E812ECCFDF911C
:10134000CF911F910F91FF90EF900895CF93DF936E
:10135000EC010E94740661E0888199810E94CC05AD
:10136000DF91CF910895CF93DF9300D000D0CDB718
:10137000DEB7382FFB0184E689838AE08A8381E027
:101380008B831C8250E0A1E0B0E0AC0FBD1FA50F25
:10139000B11D2C912223A9F0832F622F0E946D0A88
:1013A000411104C0811102C0213049F490E3980F2B
:1013B0009083622F0E94530A381B319641E05F5F91
:1013C000E2CF10820F900F900F900F90DF91CF918E
:1013D00008950F931F93CF93DF93CDB7DEB7A097F8
:1013E0000FB6F894DEBF0FBECDBF8E010F5F1F4F4B
:1013F00080E2F80111928A95E9F789E590E09A83F5
:10140000898388E690E09E838D8386EE90E09A87BC
:10141000898788E391E09E878D878BEB90E09A8B9C
:10142000898B8AE196E09E8B8D8B8FE690E09A8F78
:10143000898F80EB98E29E8F8D8F0E94E2010E943F
:1014400060040E947D048CE291E00E9414088AE30B
:1014500091E00E94920781E090E00E9488078FE06F
:101460000E94820781E090E09093A9038093A803F3
:101470000E94740682E693E00E94730783EA93E079
:101480000E946C0864E0C8010E94340380E090E090
:10149000A0960FB6F894DEBF0FBECDBFDF91CF91FF
:1014A0001F910F910895002480FD060E660F11F024
:1014B0008695D1F7802D08950024552704C0080E85
:1014C000591F880F991F009729F076956795B8F3F3
:1014D0007105B9F7802D952F0895991B79E004C007
:1014E000991F961708F0961B881F7A95C9F7809563
:1014F0000895AA1BBB1B51E107C0AA1FBB1FA6175B
:10150000B70710F0A61BB70B881F991F5A95A9F7AC
:1015100080959095BC01CD01089597FB072E16F498
:10152000009407D077FD09D00E94790A07FC05D006
:101530003EF4909581959F4F0895709561957F4FEA
:101540000895052E97FB1EF400940E94B80A57FDDB
:1015500007D00E94C00A07FC03D04EF40C94B80ACE
:1015600050954095309521953F4F4F4F5F4F0895CF
:1015700090958095709561957F4F8F4F9F4F0895FF
:10158000A1E21A2EAA1BBB1BFD010DC0AA1FBB1F87
:10159000EE1FFF1FA217B307E407F50720F0A21BF9
:1015A000B30BE40BF50B661F771F881F991F1A9466
:1015B00069F760957095809590959B01AC01BD0190
:1015C000CF010895CF93DF938230910510F482E02C
:1015D00090E0E091C503F091C60320E030E0A0E088
:1015E000B0E0309739F14081518148175907B8F080
:1015F0004817590771F482819381109729F0139647
:101600009C938E9312972CC09093C6038093C5032E
:1016100027C02115310531F04217530718F0A901F1
:10162000DB0101C0EF019A01BD01DF010280F381FE
:10163000E02DD7CF21153105F9F0281B390B2430C7
:10164000310580F48A819B816115710521F0FB01D0
:101650009383828304C09093C6038093C503FE01E5
:10166000329644C0FE01E20FF31F81939193225002
:101670003109398328833AC02091C3033091C403D0
:10168000232B41F420913601309137013093C4036C
:101690002093C30320913401309135012115310588
:1016A00041F42DB73EB74091380150913901241BC8
:1016B000350BE091C303F091C403E217F307A0F4E4
:1016C0002E1B3F0B2817390778F0AC014E5F5F4F98
:1016D0002417350748F04E0F5F1F5093C403409303
:1016E000C3038193919302C0E0E0F0E0CF01DF916A
:1016F000CF910895CF93DF93009709F487C0FC0141
:10170000329713821282C091C503D091C6032097ED
:1017100081F420813181280F391F8091C30390917A
:10172000C4038217930779F5F093C403E093C303CE
:101730006DC0DE0120E030E0AE17BF0750F4129616
:101740004D915C9113979D014115510509F1DA0105
:10175000F3CFB383A28340815181840F951F8A17F1
:101760009B0771F48D919C911197840F951F0296A0
:101770009183808312968D919C911397938382839A
:101780002115310529F4F093C603E093C5033EC04B
:10179000D9011396FC93EE9312974D915D91A40F8E
:1017A000B51FEA17FB0779F480819181840F951F9B
:1017B0000296D90111969C938E9382819381139600
:1017C0009C938E931297E0E0F0E08A819B810097D2
:1017D00019F0FE01EC01F9CFCE0102962881398182
:1017E000820F931F2091C3033091C4032817390738
:1017F00069F4309729F41092C6031092C50302C011
:1018000013821282D093C403C093C303DF91CF919C
:101810000895FB01DC0101900D920020E1F708958D
:10182000FB01DC014150504048F001900D92002036
:10183000C9F701C01D9241505040E0F70895F89457
:02184000FFCFD8
:10184200020301000000000000140000000000007C
:101852000000000000000000000000000000000086
:101862000000000000000000000000000000000076
:10187200000000000000C7032000010507205F05EB
:101882000000000000C6186380014A290000004AD7
:101892007DF59502C417471F0163222232062615E1
:1018A20051930586080000008808210802822084DE
:1018B2008800805457090080904F0800000060881B
:1018C2000000800F00000000008C010022220200B4
:1018D2002EE63AA303C4104288032E4244C4072EC4
:1018E2004207A30388A9F411023F8407A3032E86AB
:1018F20017A3033F424408012E4617A3032E460FA7
:10190200A303C018600C00C01860880088882008F3
:1019120002007CF0010082208888002E42440001EF
:101922002E425BAB0344C51F63042FC617E3032E8D
:101932008610A2032FC618E3033F8417C2073F8411
:101942001742002E861EA30731C61F63048E104263
:101952008803104218A3033195515204218410C206
:101962000771D71A630471D61C63042EC618A30329
:101972002FC61742002EC65893052FC61763042E92
:101982000607A3039F1042080131C618A30331C6FC
:1019920018150131C65AAB02312AA26204312A4219
:1019A20008011F2222C207278410C20120088220B8
:1019B200000E218490034445000000000000C0078F
:1019C20082200000000038E8A30721B419E30300D5
:1019D200B810A20310DA1CA30700B8F883034C8ADC
:1019E200238400C0C7E8A10321B419630404184288
:1019F2008803083084920121A4324A028610428868
:101A02000300AC5A630400B419630400B818A303BA
:101A120000BCF8420000D8EC210400B419420000D6
:101A2200B8E0E003421C21240300C418B30500C43B
:101A320018150100C45AAB02004445540400C4E81E
:101A4200A103007C44C407881041080284104208A4
:101A520001821044880000888A000003400080034D
:101A62001003800320004000200010000800040042
:101A720002000103800340032000800310000306DC
:101A8200080A47414D45204F5645522E2053434F99
:101A92005245203D2000534E414B45204449454488
:101AA200210050313A505553482055502E20503283
:101AB2003A5055534820444F574E2E0031003200C1
:00000001FF
