:100000000C943A000C9457000C9457000C94570031
:100010000C9457000C9457000C9457000C94570004
:100020000C9457000C9457000C9457000C945700F4
:100030000C9457000C9457000C9457000C945700E4
:100040000C9457000C9457000C9457000C945700D4
:100050000C9457000C9457000C9457000C945700C4
:100060000C9457000C9457000C9457000C945700B4
:100070000C94570011241FBECFEFD4E0DEBFCDBFDC
:1000800013E0A0E0B1E0E0E8FBE002C005900D92D3
:10009000A433B107D9F713E0A4E3B3E001C01D9284
:1000A000AB34B107E1F70E9418050C94BE050C941F
:1000B0000000CF93DF9300D0CDB7DEB789831A82DB
:1000C000CE0101960E9469040F900F90DF91CF91AD
:1000D0000895E1E6F0E080E880831082A89584B777
:1000E000877F84BFE0E6F0E08081886180831082B2
:1000F00008951092800084E0809381001092850022
:100100001092840008958091840090918500089554
:10011000AC0180918400909185009C01241B350BDB
:10012000283E3340B0F70895209184003091850037
:10013000820F931F0C9488008530A0F4673090F4F0
:1001400021E030E0062E01C0220F0A94EAF7E82FE2
:10015000F0E0EB5CFC4F822F809590818923411168
:10016000822B80830895853088F4673078F4E82FF7
:10017000F0E0EB5CFC4F21E030E0062E01C0220FE6
:100180000A94EAF79081922381E009F480E00895CF
:1001900060913403E62FF0E0EB5CFC4F80810E941D
:1001A0001701809134038F5F853018F480933403F6
:1001B0000895109234030895109235031092360377
:1001C00010923703109238031092390308950E9459
:1001D000F5000C94DC00FC01FF2784A1892B84A38B
:1001E00085A1892B85A381E00895CF93DF93CCE18E
:1001F000D3E0899199910E94EB0083E0CA32D8073D
:10020000C1F783E090E40E94EB0080E090E80E9458
:10021000EB0083E090E10E94EB0083E090E80E9415
:10022000EB0083E090E2DF91CF910C94EB00E09142
:100230003A03F0E0EE0FFF1FEE5EFC4F20813181AC
:10024000F901FF2795A1932B95A3ECE1F3E0208121
:100250003181D901BB2780FF07C095962C919597D6
:10026000932F9095922304C095969C919597932BEC
:1002700095969C938695329693E0EA32F90739F782
:10028000E62FF0E0EE0FFF1FEE5EFC4F80819181C4
:10029000FC01FF2725A1892F8095822385A36093E8
:1002A0003A0308956230710511F160F4613071050F
:1002B00051F5FC01FF2784A19095892384A385A192
:1002C00089231EC06330710541F064307105D9F493
:1002D000FC01FF2784A1892B10C0FC01FF2784A10A
:1002E000892B84A325A1892F8095822309C0FC0135
:1002F000FF2784A1292F2095822384A385A1892B00
:1003000085A381E0089580E00895E82FF0E0EE0FE6
:10031000FF1FE55CFC4F8081882321F0818191E003
:10032000892701C080E081700895E82FF0E0EE0F8A
:10033000FF1FE55CFC4F8081811102C0818101C0FB
:1003400080E081700895E82FF0E0EE0FFF1FE55C7C
:10035000FC4F80810895E82FF0E0EE0FFF1FE55C71
:10036000FC4F908181E0892708954F925F927F92A0
:100370008F929F92AF92BF92CF92DF92EF92FF92B5
:100380000F931F93CF93DF9300D0CDB7DEB75BE31E
:10039000452E53E0552E6CE3E62E63E0F62E7AE20E
:1003A000A72E73E0B72EE6E07E2EF2018081F701E2
:1003B0008083F501019111915F016801DD24F6014F
:1003C00084A1812E992425A130E02821392141E002
:1003D000232B09F440E090E088219921892B29F012
:1003E000442341F024E030E00AC0442331F022E00D
:1003F00030E005C023E030E002C021E030E064E0FE
:1004000070E0C80129833A830E94520162E070E0E3
:10041000C8010E945201872D8A95F1F7F60183A148
:1004200090E08821992141E029813A81892B09F0C6
:1004300040E0F2014083B901C8010E945201F2E09C
:100440004F0E511C82E0E80EF11CE5E44E16E3E08D
:100450005E0609F0AACF0F900F90DF91CF911F9108
:100460000F91FF90EF90DF90CF90BF90AF909F9053
:100470008F907F905F904F9008950895009789F036
:10048000FC012381621B67FD09C0772767FD70951A
:10049000248130E081E0621773070CF080E0817006
:1004A000089580E00895CF93DF93FC01822F309769
:1004B00089F19181491770F52281821758F52381BE
:1004C000621B67FD27C0A62FBB27A7FDB095C4817F
:1004D000D0E0AC17BD07F4F4692F0E944005480F27
:1004E000658170E0CD010E944905DC011696842FDC
:1004F000869586958695AE0FBF1FA80FB11D2C91CE
:1005000030E0477002C0359527954A95E2F7822F73
:10051000817001C080E0DF91CF910895CF93DF9388
:10052000EC010E9479009E0140E050E062E17AE730
:1005300080E090E00E946E053093480320934703CB
:10054000DF91CF91089580914503909146030E94D9
:100550008800809145039091460320914703309194
:100560004803820F931F9093460380934503089599
:1005700041E0611101C040E0692F0C949C00692F9B
:100580000C94B30041E0611101C040E0692F0C946C
:100590009C006F927F928F929F92AF92BF92CF9268
:1005A000DF92EF92FF920F931F93CF93DF931F92EF
:1005B000CDB7DEB7862EB42E6C01862F992787FD26
:1005C00090958C199109C7FC9395072F112707FD6A
:1005D00010950D191109D7FC139597FD03C0AA2496
:1005E000A39402C0AA24AA9417FD03C0992493944B
:1005F00002C099249A943C0197FF03C071946194BE
:10060000710817FF03C01195019511096016710655
:1006100094F07301F594E794C81409F16B2DC601A9
:100620000E94C202E01AF10AF7FE03C0E60CF71CB2
:10063000D90CCA0CF1CF7801F594E794D71679F06C
:100640006B2DC60179830E94C202E618F7087981F2
:10065000F7FE03C0E00EF11ECA0CD90CEFCF6B2DD4
:10066000C6010F90DF91CF911F910F91FF90EF90F6
:10067000DF90CF90BF90AF909F908F907F906F90C2
:100680000C94C202FF920F931F93CF93DF93182F06
:10069000F92E062FC72FD42F792F0E94C9024D2F74
:1006A000612F7C2F812F9F2D0E94C9024D2F602F1B
:1006B0007C2F802F9F2D0E94C9024D2F602F7C2FF1
:1006C000812F9C2F0E94C902DF91CF911F910F9122
:1006D000FF9008950E94DC001092110110920C010D
:1006E0000895DF92EF92FF920F931F93CF93DF93C2
:1006F000E82E8B01F62ED12E2091020130910301BC
:10070000D0E02130310599F5D12EDD1AE0910801B4
:10071000F09109018181C0E0D817B8F4E091080197
:10072000F09109018281C81770F42C2F4D2F6E2D86
:10073000CF010E945302682F8C2F800F9D2D0E94A5
:10074000C202CF5FEBCFDF5FDFCFE0910801F09116
:1007500009018281C81740F460E08C2F800F9D2D25
:100760000E94C202CF5FF1CFDA9430C0DF5FFD2E6E
:10077000F00EE0910801F09109018181C0E0D817E5
:10078000A8F4E0910801F09109018281C81770F77F
:100790002C2F4D2F6E2DCF010E945302682F8F2DCD
:1007A0009C2F910F0E94C202CF5FEBCFE091080116
:1007B000F09109018281C81740F460E08F2D9C2FD1
:1007C000910F0E94C202CF5FF1CFF3948F2D9D2D28
:1007D000DF91CF911F910F91FF90EF90DF900895DF
:1007E0001F93CF93DF93182FEC019C2F911B8991BE
:1007F000882349F00E947103BC019C2F911B653036
:1008000014F477FFF2CF892FDF91CF911F910895D4
:100810000F931F93CF93DF93EC019B0110920C0178
:1008200040930D01109210010091080110910901EF
:100830000115110509F448C0F80181816091060194
:100840007091070190E00E944905BC0180910A0166
:1008500090910B010E945A05CB016AE070E00E9462
:10086000490590930F0180930E0130930501209369
:10087000040140E250E0BE0181E191E00E94AF0539
:1008800080910001909101010197F1F4FE01019026
:100890000020E9F7CF010197F801618170E06F5FF7
:1008A0007F4F8C1B0E9440058150209102013091A6
:1008B00003012130310511F497E001C095E098174C
:1008C00018F48EEF80931001DF91CF911F910F915B
:1008D000089520910201309103012130310511F476
:1008E00076E001C070E04FEF60E00E9408040895D8
:1008F00090E0909307018093060108959093010181
:10090000809300010895909303018093020108955C
:1009100090930901809308010895CF938091490332
:1009200090914A03019690934A0380934903209142
:100930000E0130910F018217930708F468C01092DE
:100940004A0310924903E0910C01F0E0E050FF4FA0
:10095000818981110AC080910D01823008F457C04D
:10096000815080930D0110920C01C0910C018C2FCD
:1009700090E0FC01E050FF4F2189222309F447C099
:1009800020910001309101014091100121153105A4
:1009900021F02130310589F022C0411120C0609141
:1009A0000401709105018F5E9E4F0E94F0039FEF3E
:1009B0009C0F980F90930C0112C0609104017091EC
:1009C000050120910201309103012130310511F41C
:1009D000740F01C0641B8F5E9E4F0E94F003209134
:1009E00010012F5F20931001332727FD3095E091F0
:1009F0000801F0910901818190E0821793073CF48E
:100A00001092100180910C018F5F80930C01CF91A7
:100A10000C94C80090930B0180930A010E94E70098
:100A200084E190E090930701809306010C946A039F
:100A30000E94690084EF91E00E940A0581E391E041
:100A40000E9488048AE00E9478040E943D0284EF9C
:100A500091E00E948E02C1E40E94A3020E948D04D4
:100A60000E94B50180E00E9485018111CF5F82E084
:100A70000E9485018111C1508C2F0E945900ECCF3A
:100A8000002480FD060E660F11F08695D1F7802DAB
:100A900008950024552704C0080E591F880F991F78
:100AA000009729F076956795B8F37105B9F7802D11
:100AB000952F0895AA1BBB1B51E107C0AA1FBB1F9E
:100AC000A617B70710F0A61BB70B881F991F5A95DA
:100AD000A9F780959095BC01CD010895052E97FB4F
:100AE0001EF400940E94850557FD07D00E948D05D5
:100AF00007FC03D04EF40C94850550954095309535
:100B000021953F4F4F4F5F4F089590958095709579
:100B100061957F4F8F4F9F4F0895A1E21A2EAA1B18
:100B2000BB1BFD010DC0AA1FBB1FEE1FFF1FA2179D
:100B3000B307E407F50720F0A21BB30BE40BF50B9A
:100B4000661F771F881F991F1A9469F76095709523
:100B5000809590959B01AC01BD01CF010895FB01EB
:100B6000DC014150504048F001900D920020C9F73F
:100B700001C01D9241505040E0F70895F894FFCF16
:100B80000000000000001400000000000000000051
:100B90000000000000000000000000000000000055
:100BA0000000000000000000000000000000000045
:100BB00000010507205F050000000000C6186380E3
:100BC000014A290000004A7DF59502C417471F011C
:100BD00063222232062615519305860800000088FC
:100BE00008210802822084880080545709008090E0
:100BF0004F0800000060880000800F000000000027
:100C00008C0100222202002EE63AA303C41042887F
:100C1000032E4244C4072E4207A30388A9F41102FD
:100C20003F8407A3032E8617A3033F424408012EE7
:100C30004617A3032E460FA303C018600C00C0186C
:100C40006088008888200802007CF00100822088EB
:100C500088002E424400012E425BAB0344C51F6353
:100C6000042FC617E3032E8610A2032FC618E30332
:100C70003F8417C2073F841742002E861EA3073108
:100C8000C61F63048E10428803104218A3033195D7
:100C9000515204218410C20771D71A630471D61C03
:100CA00063042EC618A3032FC61742002EC65893FE
:100CB000052FC61763042E0607A3039F10420801E1
:100CC00031C618A30331C618150131C65AAB02311B
:100CD0002AA26204312A4208011F2222C207278465
:100CE00010C20120088220000E2184900344450098
:100CF0000000000000C00782200000000038E8A3C8
:100D00000721B419E30300B810A20310DA1CA307EB
:100D100000B8F883034C8A238400C0C7E8A10321EC
:100D2000B41963040418428803083084920121A492
:100D3000324A02861042880300AC5A630400B41998
:100D4000630400B818A30300BCF8420000D8EC21EB
:100D50000400B419420000B8E0E003421C2124035F
:100D600000C418B30500C418150100C45AAB020032
:100D70004445540400C4E8A103007C44C40788101F
:100D80004108028410420801821044880000888AC9
:100D90000000034000800310038003200040002077
:100DA000001000080004000200010380034003203B
:040DB00000800310AC
:00000001FF
