:100000000C943A000C9444000C9444000C9444006A
:100010000C9444000C9444000C9444000C94440050
:100020000C9444000C9444000C9444000C94440040
:100030000C9444000C9444000C9444000C94440030
:100040000C9444000C9444000C9444000C94440020
:100050000C9444000C9444000C9444000C94440010
:100060000C9444000C9444000C9444000C94440000
:100070000C94440011241FBECFEFD4E0DEBFCDBFEF
:100080000E9462000C9472000C940000E1E6F0E023
:1000900080E880831082A89584B7877F84BFE0E6DC
:1000A000F0E08081886180831082089589B1807832
:1000B00090E0089557980895429A089542980895B7
:1000C0003A9A08950E9446000E9460000E945A00D9
:1000D0000E945600892B19F00E945C00F9CF0E9403
:0800E0005E00F6CFF894FFCF9B
:00000001FF
