:100000000C943A000C9457000C9457000C94570031
:100010000C9457000C9457000C9457000C94570004
:100020000C9457000C9457000C9457000C945700F4
:100030000C9457000C9457000C9457000C945700E4
:100040000C9457000C9457000C9457000C945700D4
:100050000C9457000C9457000C9457000C945700C4
:100060000C9457000C9457000C9457000C945700B4
:100070000C94570011241FBECFEFD4E0DEBFCDBFDC
:1000800013E0A0E0B1E0E4E7F9E002C005900D92D2
:10009000A633B107D9F713E0A6E3B3E001C01D9280
:1000A000A334B107E1F70E941C040C94B8040C942B
:1000B0000000E1E6F0E080E880831082A89584B734
:1000C000877F84BFE0E6F0E08081886180831082D2
:1000D00008951092800084E0809381001092850042
:1000E0001092840008958091840090918500089575
:1000F000AC0180918400909185009C01241B350BFC
:10010000283E3340B0F70895209184003091850057
:10011000820F931F0C9478008530A0F4673090F420
:1001200021E030E0062E01C0220F0A94EAF7E82F02
:10013000F0E0E95CFC4F822F80959081892341118A
:10014000822B80830895853088F4673078F4E82F17
:10015000F0E0E95CFC4F21E030E0062E01C0220F08
:100160000A94EAF79081922381E009F480E00895EF
:1001700060913603E62FF0E0E95CFC4F80810E943D
:100180000701809136038F5F853018F48093360322
:100190000895109236030895109237031092380391
:1001A0001092390310923A0310923B0308950E9473
:1001B000E5000C94CC00FC01FF2784A1892B84A3CB
:1001C00085A1892B85A381E00895CF93DF93CCE1AE
:1001D000D3E0899199910E94DB0083E0CA32D8076D
:1001E000C1F783E090E40E94DB0080E090E80E9489
:1001F000DB0083E090E10E94DB0083E090E80E9456
:10020000DB0083E090E2DF91CF910C94DB00E09182
:100210003C03F0E0EE0FFF1FEE5EFC4F20813181CA
:10022000F901FF2795A1932B95A3ECE1F3E0208141
:100230003181D901BB2780FF07C095962C919597F6
:10024000932F9095922304C095969C919597932B0C
:1002500095969C938695329693E0EA32F90739F7A2
:10026000E62FF0E0EE0FFF1FEE5EFC4F80819181E4
:10027000FC01FF2725A1892F8095822385A3609308
:100280003C030895009789F0FC012381621B67FD00
:1002900009C0772767FD7095248130E081E06217FF
:1002A00073070CF080E08170089580E00895CF938B
:1002B000DF93FC01822F309789F19181491770F506
:1002C0002281821758F52381621B67FD27C0A62F64
:1002D000BB27A7FDB095C481D0E0AC17BD07F4F4EF
:1002E000692F0E943A04480F658170E0CD010E9499
:1002F0004304DC011696842F869586958695AE0F6D
:10030000BF1FA80FB11D2C9130E0477002C035957A
:1003100027954A95E2F7822F817001C080E0DF9136
:10032000CF910895CF93DF93EC010E9469009E0165
:1003300040E050E062E17AE780E090E00E946804EB
:100340003093400320933F03DF91CF910895809134
:100350003D0390913E030E94780080913D0390916F
:100360003E0320913F0330914003820F931F9093EF
:100370003E0380933D03089541E0611101C040E0D8
:10038000692F0C948C00692F0C94A30041E061113B
:1003900001C040E0692F0C948C006F927F928F9285
:1003A0009F92AF92BF92CF92DF92EF92FF920F9304
:1003B0001F93CF93DF931F92CDB7DEB7862EB42E57
:1003C0006C01862F992787FD90958C199109C7FCA0
:1003D0009395072F112707FD10950D191109D7FCCB
:1003E000139597FD03C0AA24A39402C0AA24AA943B
:1003F00017FD03C09924939402C099249A943C0158
:1004000097FF03C071946194710817FF03C01195A1
:10041000019511096016710694F07301F594E79443
:10042000C81409F16B2DC6010E94C601E01AF10A39
:10043000F7FE03C0E60CF71CD90CCA0CF1CF78010B
:10044000F594E794D71679F06B2DC60179830E9455
:10045000C601E618F7087981F7FE03C0E00EF11E29
:10046000CA0CD90CEFCF6B2DC6010F90DF91CF9145
:100470001F910F91FF90EF90DF90CF90BF90AF90C2
:100480009F908F907F906F900C94C601FF920F9376
:100490001F93CF93DF93182FF92E062FC72FD42F3A
:1004A000792F0E94CD014D2F612F7C2F812F9F2D01
:1004B0000E94CD014D2F602F7C2F802F9F2D0E94F9
:1004C000CD014D2F602F7C2F812F9C2F0E94CD01BD
:1004D000DF91CF911F910F91FF9008950E94CC0062
:1004E0001092110110920C010895DF92EF92FF9289
:1004F0000F931F93CF93DF93E82E8B01F62ED12E0F
:100500002091020130910301D0E02130310599F5AD
:10051000D12EDD1AE0910801F09109018181C0E03E
:10052000D817B8F4E0910801F09109018281C81749
:1005300070F42C2F4D2F6E2DCF010E945701682F84
:100540008C2F800F9D2D0E94C601CF5FEBCFDF5F08
:10055000DFCFE0910801F09109018281C81740F4D2
:1005600060E08C2F800F9D2D0E94C601CF5FF1CFE0
:10057000DA9430C0DF5FFD2EF00EE0910801F091BB
:1005800009018181C0E0D817A8F4E0910801F09139
:1005900009018281C81770F72C2F4D2F6E2DCF01C6
:1005A0000E945701682F8F2D9C2F910F0E94C6012A
:1005B000CF5FEBCFE0910801F09109018281C8176C
:1005C00040F460E08F2D9C2F910F0E94C601CF5FF9
:1005D000F1CFF3948F2D9D2DDF91CF911F910F912E
:1005E000FF90EF90DF9008951F93CF93DF93182F24
:1005F000EC019C2F911B8991882349F00E94750280
:10060000BC019C2F911B653014F477FFF2CF892F2A
:10061000DF91CF911F9108950F931F93CF93DF9395
:10062000EC019B0110920C0140930D0110921001FE
:1006300000910801109109010115110509F448C044
:10064000F8018181609106017091070190E00E949C
:100650004304BC0180910A0190910B010E94540453
:10066000CB016AE070E00E94430490930F018093F5
:100670000E01309305012093040140E250E0BE01D9
:1006800081E191E00E94A904809100019091010113
:100690000197F1F4FE0101900020E9F7CF010197E5
:1006A000F801618170E06F5F7F4F8C1B0E943A04FC
:1006B000815020910201309103012130310511F464
:1006C00097E001C095E0981718F48EEF8093100121
:1006D000DF91CF911F910F910895209102013091E8
:1006E00003012130310511F476E001C070E04FEFD5
:1006F00060E00E940C03089590E0909307018093BE
:10070000060108959093010180930001089590934C
:1007100003018093020108959093090180930801D9
:100720000895CF9380914103909142030196909355
:1007300042038093410320910E0130910F018217F3
:10074000930708F468C01092420310924103E091AD
:100750000C01F0E0E050FF4F818981110AC08091C7
:100760000D01823008F457C0815080930D01109222
:100770000C01C0910C018C2F90E0FC01E050FF4F68
:100780002189222309F447C0209100013091010101
:10079000409110012115310521F02130310589F0FA
:1007A00022C0411120C060910401709105018F5E4B
:1007B0009E4F0E94F4029FEF9C0F980F90930C01A4
:1007C00012C06091040170910501209102013091E5
:1007D00003012130310511F4740F01C0641B8F5ED9
:1007E0009E4F0E94F402209110012F5F2093100170
:1007F000332727FD3095E0910801F09109018181AF
:1008000090E0821793073CF41092100180910C0144
:100810008F5F80930C01CF910C94B80090930B01E3
:1008200080930A010E94D70084E190E09093070131
:10083000809306010C946E020E94590084EF91E0AF
:100840000E940E0481E391E00E948C038AE00E94E2
:100850007C038AE293E00E946D0381E090E00E94B5
:10086000820384EF91E00E9492010E94A7010E94FE
:100870009103FBCF002480FD060E660F11F08695D4
:10088000D1F7802D08950024552704C0080E591F64
:10089000880F991F009729F076956795B8F3710531
:1008A000B9F7802D952F0895AA1BBB1B51E107C0F6
:1008B000AA1FBB1FA617B70710F0A61BB70B881FF0
:1008C000991F5A95A9F780959095BC01CD0108957F
:1008D000052E97FB1EF400940E947F0457FD07D05D
:1008E0000E94870407FC03D04EF40C947F045095BB
:1008F0004095309521953F4F4F4F5F4F089590950C
:100900008095709561957F4F8F4F9F4F0895A1E21D
:100910001A2EAA1BBB1BFD010DC0AA1FBB1FEE1F79
:10092000FF1FA217B307E407F50720F0A21BB30BC4
:10093000E40BF50B661F771F881F991F1A9469F740
:1009400060957095809590959B01AC01BD01CF019C
:100950000895FB01DC014150504048F001900D9298
:100960000020C9F701C01D9241505040E0F70895A2
:04097000F894FFCF29
:10097400000000000000140000000000000000005F
:100984000000000000000000000000000000000063
:100994000000000000000000000000000000000053
:1009A40000010507205F050000000000C6186380F1
:1009B400014A290000004A7DF59502C417471F012A
:1009C400632222320626155193058608000000880A
:1009D40008210802822084880080545709008090EE
:1009E4004F0800000060880000800F000000000035
:1009F4008C0100222202002EE63AA303C41042888E
:100A0400032E4244C4072E4207A30388A9F411020B
:100A14003F8407A3032E8617A3033F424408012EF5
:100A24004617A3032E460FA303C018600C00C0187A
:100A34006088008888200802007CF00100822088F9
:100A440088002E424400012E425BAB0344C51F6361
:100A5400042FC617E3032E8610A2032FC618E30340
:100A64003F8417C2073F841742002E861EA3073116
:100A7400C61F63048E10428803104218A3033195E5
:100A8400515204218410C20771D71A630471D61C11
:100A940063042EC618A3032FC61742002EC658930C
:100AA400052FC61763042E0607A3039F10420801EF
:100AB40031C618A30331C618150131C65AAB023129
:100AC4002AA26204312A4208011F2222C207278473
:100AD40010C20120088220000E21849003444500A6
:100AE4000000000000C00782200000000038E8A3D6
:100AF4000721B419E30300B810A20310DA1CA307FA
:100B040000B8F883034C8A238400C0C7E8A10321FA
:100B1400B41963040418428803083084920121A4A0
:100B2400324A02861042880300AC5A630400B419A6
:100B3400630400B818A30300BCF8420000D8EC21F9
:100B44000400B419420000B8E0E003421C2124036D
:100B540000C418B30500C418150100C45AAB020040
:100B64004445540400C4E8A103007C44C40788102D
:100B74004108028410420801821044880000888AD7
:100B84000000034000800310038003200040002085
:100B94000010000800040002000148656C6C6F201E
:060BA400776F726C640023
:00000001FF
