:100000000C943A000C9444000C9444000C9444006A
:100010000C9444000C9444000C9444000C94440050
:100020000C9444000C9444000C9444000C94440040
:100030000C9444000C9444000C9444000C94440030
:100040000C9444000C9444000C9444000C94440020
:100050000C9444000C9444000C9444000C94440010
:100060000C9444000C9444000C9444000C94440000
:100070000C94440011241FBECFEFD4E0DEBFCDBFEF
:100080000E9497000C9437020C940000E1E6F0E027
:1000900080E880831082A89584B7877F84BFE0E6DC
:1000A000F0E080818861808310820895811105C00D
:1000B000662311F0429A0895429808953A9A429A16
:1000C00008951092800085E0809381001092820054
:1000D0000895CF92DF92EF92FF92109285001092D6
:1000E0008400BC0180E090E00E941A012FE632E11A
:1000F00043E85AE30E94CC012DEB37E346E059E395
:100100000E94B2006B017C016091840070918500B7
:1001100080E090E00E941A01A70196010E94AE00C3
:1001200087FDF2CFFF90EF90DF90CF9008950E946F
:1001300046000E945E000E94610061E080E00E9433
:10014000560084EF91E00E94690060E080E00E9428
:10015000560084EF91E00E946900EFCFA8D008F428
:1001600081E008950CD0DEC0D6D040F0CDD030F084
:1001700021F45F3F19F0BFC0511108C1C2C0E3D0E4
:1001800098F39923C9F35523B1F3951B550BBB275E
:10019000AA2762177307840738F09F5F5F4F220F0B
:1001A000331F441FAA1FA9F333D00E2E3AF0E0E804
:1001B00030D091505040E695001CCAF729D0FE2F50
:1001C00027D0660F771F881FBB1F261737074807E2
:1001D000AB07B0E809F0BB0B802DBF01FF27935898
:1001E0005F4F2AF09E3F510568F085C0CFC05F3F4A
:1001F000ECF3983EDCF3869577956795B795F79580
:100200009F5FC9F7880F911D9695879597F9089577
:10021000E1E0660F771F881FBB1F62177307840713
:10022000BA0720F0621B730B840BBA0BEE1F88F722
:10023000E0950895E89409C097FB3EF49095809569
:10024000709561957F4F8F4F9F4F9923A9F0F92F9C
:1002500096E9BB279395F695879577956795B7951A
:10026000F111F8CFFAF4BB0F11F460FF1BC06F5F00
:100270007F4F8F4F9F4F16C0882311F096E911C012
:10028000772321F09EE8872F762F05C0662371F033
:1002900096E8862F70E060E02AF09A95660F771F47
:1002A000881FDAF7880F9695879597F90895990F23
:1002B0000008550FAA0BE0E8FEEF16161706E80730
:1002C000F907C0F012161306E407F50798F0621B51
:1002D000730B840B950B39F40A2661F0232B242B26
:1002E000252B21F408950A2609F4A140A6958FEF45
:1002F000811D811D089597F99F6780E870E060E097
:1003000008959FEF80EC089500240A9416161706AE
:1003100018060906089500240A94121613061406F6
:1003200005060895092E0394000C11F4882352F059
:10033000BB0F40F4BF2B11F460FF04C06F5F7F4F11
:100340008F4F9F4F089557FD9058440F551F59F0F8
:100350005F3F71F04795880F97FB991F61F09F3FB2
:1003600079F087950895121613061406551FF2CFDB
:100370004695F1DF08C0161617061806991FF1CF2B
:1003800086957105610508940895E894BB27662752
:100390007727CB0197F908950AD0C4CFB5DF28F0AD
:1003A000BADF18F0952309F0A6CFABCFEFCFCBDFA4
:1003B000A8F39923D9F35523C9F3950F50E0551F9E
:1003C000AA27EE27FF27BB2700240894679520F46F
:1003D000E20FF31FB41F0A1E220F331F441FAA1F70
:1003E0006695A9F7779530F4F30FB41F0A1E121E15
:1003F00008F46395330F441FAA1F221F769599F7BF
:10040000879520F4B40F0A1E121E631F440FAA1F03
:10041000221F331F8695A9F7862F712D602D112479
:100420009F5750408AF0E1F088234AF0EE0FFF1FFB
:10043000BB1F661F771F881F91505040A9F79E3F32
:10044000510570F058CFA2CF5F3FECF3983EDCF33C
:10045000869577956795B795F795E7959F5FC1F76F
:10046000FE2B880F911D9695879597F90895F8941E
:02047000FFCFBC
:00000001FF
