:100000000C943A000C9444000C9444000C9444006A
:100010000C9444000C9444000C9444000C94440050
:100020000C9444000C9444000C9444000C94440040
:100030000C9444000C9444000C9444000C94440030
:100040000C9444000C9444000C9444000C94440020
:100050000C9444000C9444000C9444000C94440010
:100060000C9444000C9444000C9444000C94440000
:100070000C94440011241FBECFEFD4E0DEBFCDBFEF
:100080000E9461000C9402010C940000E1E6F0E093
:1000900080E880831082A89584B7877F84BFE0E6DC
:1000A000F0E080818861808310820895811105C00D
:1000B000662311F0429A0895429808953A9A429A16
:1000C00008950E9446000E945E001092800085E024
:1000D000809381001092820061E080E00E945600CF
:1000E00010928500109284006091840070918500C8
:1000F00080E090E00E94A10020E034E244EF54E46C
:100100000E949D0087FDF0CF60E080E00E945600D5
:100110001092850010928400609184007091850097
:1001200080E090E00E94A10020E03BE147EB55E435
:100130000E949D0087FDF0CFCFCF40D008F481E032
:100140000895E89409C097FB3EF4909580957095CA
:1001500061957F4F8F4F9F4F9923A9F0F92F96E913
:10016000BB279395F695879577956795B795F11188
:10017000F8CFFAF4BB0F11F460FF1BC06F5F7F4F25
:100180008F4F9F4F16C0882311F096E911C0772337
:1001900021F09EE8872F762F05C0662371F096E840
:1001A000862F70E060E02AF09A95660F771F881F0F
:1001B000DAF7880F9695879597F90895990F0008B3
:1001C000550FAA0BE0E8FEEF16161706E807F90729
:1001D000C0F012161306E407F50798F0621B730BC4
:1001E000840B950B39F40A2661F0232B242B252B45
:1001F00021F408950A2609F4A140A6958FEF811DE8
:08020000811D0895F894FFCF61
:00000001FF
