:100000000C943A000C9457000C9457000C94570031
:100010000C9457000C9457000C9457000C94570004
:100020000C9457000C9457000C9457000C945700F4
:100030000C9457000C9457000C9457000C945700E4
:100040000C9457000C9457000C9457000C945700D4
:100050000C9457000C9457000C9457000C945700C4
:100060000C9457000C9457000C9457000C945700B4
:100070000C94570011241FBECFEFD4E0DEBFCDBFDC
:1000800011E0A0E0B1E0E2E8FAE002C005900D92D4
:10009000A83CB107D9F711E0A8ECB1E001C01D926E
:1000A000AA3DB107E1F70E9458040C943F050C9457
:1000B0000000E1E6F0E080E880831082A89584B734
:1000C000877F84BFE0E6F0E08081886180831082D2
:1000D00008951092800084E0809381001092850042
:1000E0001092840008958091840090918500089575
:1000F000AC0180918400909185009C01241B350BFC
:10010000283E3340B0F70895209184003091850057
:10011000820F931F0C94780081110CC08091CB0149
:10012000882329F08091CC0191E0892701C080E0EB
:100130008170089580E0089581110AC08091CB01FB
:10014000811103C08091CC0101C080E081700895CD
:1001500080E00895811103C08091CB01089580E073
:100160000895811105C08091CB0191E08927089500
:1001700080E00895EBECF1E080818093CC0189B1BF
:10018000881F8827881F8083089557985F9808954F
:100190008530A0F4673090F421E030E0062E01C0F5
:1001A000220F0A94EAF7E82FF0E0E253FE4F822F85
:1001B0008095908189234111822B80830895853019
:1001C00088F4673078F4E82FF0E0E253FE4F21E046
:1001D00030E0062E01C0220F0A94EAF790819223A4
:1001E00081E009F480E008956091CD01E62FF0E010
:1001F000E253FE4F80810E9443018091CD018F5FC9
:10020000853018F48093CD0108951092CD010895A2
:100210001092CE011092CF011092D0011092D10114
:100220001092D20108950E9421010C940801FC0152
:10023000FF2784A1892B84A385A1892B85A381E035
:100240000895CF93DF93C7EBD1E0899199910E94F4
:10025000170181E0C53CD807C1F783E090E40E9414
:10026000170180E090E80E94170183E090E10E946E
:10027000170183E090E80E94170183E090E2DF918C
:10028000CF910C941701E091D301F0E0EE0FFF1F26
:10029000E355FE4F20813181F901FF2795A1932B72
:1002A00095A3E7EBF1E020813181D901BB2780FFE5
:1002B00007C095962C919597932F9095922304C003
:1002C00095969C919597932B95969C9386953296AF
:1002D00091E0E53CF90739F7E62FF0E0EE0FFF1F5C
:1002E000E355FE4F80819181FC01FF2725A1892FD5
:1002F0008095822385A36093D3010895009789F0A8
:10030000FC012381621B67FD09C0772767FD70959B
:10031000248130E081E0621773070CF080E0817087
:10032000089580E00895CF93DF93FC01822F3097EA
:1003300089F19181491770F52281821758F523813F
:10034000621B67FD27C0A62FBB27A7FDB095C48100
:10035000D0E0AC17BD07F4F4692F0E94C104480F28
:10036000658170E0CD010E94CA04DC011696842FDD
:10037000869586958695AE0FBF1FA80FB11D2C914F
:1003800030E0477002C0359527954A95E2F7822FF5
:10039000817001C080E0DF91CF910895CF93DF930A
:1003A000EC010E9469009E0140E050E062E17AE7C2
:1003B00080E090E00E94EF043093D7012093D601B3
:1003C000DF91CF9108958091D4019091D5010E9441
:1003D00078008091D4019091D5012091D60130917F
:1003E000D701820F931F9093D5018093D401089574
:1003F00041E0611101C040E0692F0C94C800692FF1
:100400000C94DF0041E0611101C040E0692F0C94C1
:10041000C8006F927F928F929F92AF92BF92CF92BD
:10042000DF92EF92FF920F931F93CF93DF931F9270
:10043000CDB7DEB7862EB42E6C01862F992787FDA7
:1004400090958C199109C7FC9395072F112707FDEB
:1004500010950D191109D7FC139597FD03C0AA2417
:10046000A39402C0AA24AA9417FD03C099249394CC
:1004700002C099249A943C0197FF03C0719461943F
:10048000710817FF03C011950195110960167106D7
:1004900094F07301F594E794C81409F16B2DC6012B
:1004A0000E940202E01AF10AF7FE03C0E60CF71CF4
:1004B000D90CCA0CF1CF7801F594E794D71679F0EE
:1004C0006B2DC60179830E940202E618F708798134
:1004D000F7FE03C0E00EF11ECA0CD90CEFCF6B2D56
:1004E000C6010F90DF91CF911F910F91FF90EF9078
:1004F000DF90CF90BF90AF909F908F907F906F9044
:100500000C940202FF920F931F93CF93DF93182F47
:10051000F92E062FC72FD42F792F0E9409024D2FB5
:10052000612F7C2F812F9F2D0E9409024D2F602F5C
:100530007C2F802F9F2D0E9409024D2F602F7C2F32
:10054000812F9C2F0E940902DF91CF911F910F9163
:10055000FF9008950E9408011092110110920C0161
:100560000895DF92EF92FF920F931F93CF93DF9343
:10057000E82E8B01F62ED12E20910201309103013D
:10058000D0E02130310599F5D12EDD1AE091080136
:10059000F09109018181C0E0D817B8F4E091080119
:1005A000F09109018281C81770F42C2F4D2F6E2D08
:1005B000CF010E949301682F8C2F800F9D2D0E94E8
:1005C0000202CF5FEBCFDF5FDFCFE0910801F09158
:1005D00009018281C81740F460E08C2F800F9D2DA7
:1005E0000E940202CF5FF1CFDA9430C0DF5FFD2EB0
:1005F000F00EE0910801F09109018181C0E0D81767
:10060000A8F4E0910801F09109018281C81770F700
:100610002C2F4D2F6E2DCF010E949301682F8F2D0F
:100620009C2F910F0E940202CF5FEBCFE091080157
:10063000F09109018281C81740F460E08F2D9C2F52
:10064000910F0E940202CF5FF1CFF3948F2D9D2D69
:10065000DF91CF911F910F91FF90EF90DF90089560
:100660001F93CF93DF93182FEC019C2F911B89913F
:10067000882349F00E94B102BC019C2F911B653078
:1006800014F477FFF2CF892FDF91CF911F91089556
:100690000F931F93CF93DF93EC019B0110920C01FA
:1006A00040930D0110921001009108011091090171
:1006B0000115110509F448C0F80181816091060116
:1006C0007091070190E00E94CA04BC0180910A0168
:1006D00090910B010E94DB04CB016AE070E00E9464
:1006E000CA0490930F0180930E013093050120936B
:1006F000040140E250E0BE0181E191E00E9430053A
:1007000080910001909101010197F1F4FE010190A7
:100710000020E9F7CF010197F801618170E06F5F78
:100720007F4F8C1B0E94C1048150209102013091A7
:1007300003012130310511F497E001C095E09817CD
:1007400018F48EEF80931001DF91CF911F910F91DC
:10075000089520910201309103012130310511F4F7
:1007600076E001C070E04FEF60E00E94480308951A
:1007700090E0909307018093060108959093010102
:1007800080930001089590930301809302010895DE
:1007900090930901809308010895CF938091D80127
:1007A0009091D90101969093D9018093D80120911D
:1007B0000E0130910F018217930708F468C0109260
:1007C000D9011092D801E0910C01F0E0E050FF4F08
:1007D000818981110AC080910D01823008F457C0CF
:1007E000815080930D0110920C01C0910C018C2F4F
:1007F00090E0FC01E050FF4F2189222309F447C01B
:100800002091000130910101409110012115310525
:1008100021F02130310589F022C0411120C06091C2
:100820000401709105018F5E9E4F0E9430039FEF7F
:100830009C0F980F90930C0112C06091040170916D
:10084000050120910201309103012130310511F49D
:10085000740F01C0641B8F5E9E4F0E943003209175
:1008600010012F5F20931001332727FD3095E09171
:100870000801F0910901818190E0821793073CF40F
:100880001092100180910C018F5F80930C01CF9129
:100890000C94F40090930B0180930A010E941301C1
:1008A00084E190E090930701809306010C94AA02E2
:1008B000CF93DF9300D01F92CDB7DEB70E945900CF
:1008C0000E94C50088EE93E00E94CE0188EE93E07E
:1008D0000E944A0481E391E00E94C80380E090E016
:1008E0000E94BE0381E090E00E94C30385EC91E08A
:1008F0000E94A903DD24D39484E6E82EF12C0AE0BB
:1009000010E00E94E3010E94BA0080E00E948C0087
:10091000882329F08091CA018D258093CA01809196
:10092000CA01811105C01092C9011092C80126C0E8
:100930002091C8013091C901C901B7010E94DB04AF
:10094000CB01B8010E94DB04805D8983C901B80135
:100950000E94DB04CB01B8010E94DB04805D8A8326
:100960001B82CE0101960E94A9038091C80190913B
:10097000C90101969093C9018093C8010E94CD03DB
:10098000C0CF002480FD060E660F11F08695D1F7CA
:10099000802D08950024552704C0080E591F880F84
:1009A000991F009729F076956795B8F37105B9F707
:1009B000802D952F0895AA1BBB1B51E107C0AA1FCC
:1009C000BB1FA617B70710F0A61BB70B881F991FF0
:1009D0005A95A9F780959095BC01CD010895052EF3
:1009E00097FB1EF400940E94060557FD07D00E9455
:1009F0000E0507FC03D04EF40C9406055095409567
:100A0000309521953F4F4F4F5F4F089590958095BA
:100A1000709561957F4F8F4F9F4F0895A1E21A2ED9
:100A2000AA1BBB1BFD010DC0AA1FBB1FEE1FFF1F92
:100A3000A217B307E407F50720F0A21BB30BE40BE2
:100A4000F50B661F771F881F991F1A9469F7609529
:100A50007095809590959B01AC01BD01CF010895E3
:100A6000FB01DC014150504048F001900D92002004
:100A7000C9F701C01D9241505040E0F70895F89425
:020A8000FFCFA6
:100A82000000000000001400000000000000000050
:100A92000000000000000000000000000000000054
:100AA2000000000000000000000000000000000044
:100AB20000010305203B0200009220EB737D5FDE04
:100AC2003DA552EA7A14004A222229BA2ED0050004
:100AD20014C0010020A4126A2B9A74A372A338EDE9
:100AE200498F38CE2AA712AA2AAE491004101454EC
:100AF20044380E11152A250000EA5BEB3A4F726B5F
:100B02003BCF73CF134F7AED5B9774247B5D5649CD
:100B120072FD5B6F5B6F7BEF136F7FEF57CE389782
:100B2200246D7B6D2BED5FAD5AAD24A7720340009F
:100B32008003100380032000400020001000080002
:080B4200040002000130300044
:00000001FF
