:100000000C943A000C9457000C9457000C94570031
:100010000C9457000C9457000C9457000C94570004
:100020000C9457000C9457000C9457000C945700F4
:100030000C9457000C9457000C9457000C945700E4
:100040000C9457000C9457000C9457000C945700D4
:100050000C9457000C9457000C9457000C945700C4
:100060000C9457000C9457000C9457000C945700B4
:100070000C94570011241FBECFEFD4E0DEBFCDBFDC
:1000800013E0A0E0B1E0E6E0FCE002C005900D92D4
:10009000A033B107D9F713E0A0E3B3E001C01D928C
:1000A000AD33B107E1F70E9463050C9401060C948F
:1000B0000000CF93DF9300D0CDB7DEB789831A82DB
:1000C000CE0101960E94B4040F900F90DF91CF9162
:1000D00008950C949F010C94C0010C94A5010C94FC
:1000E000AB010C94B1010E94B1010E94AB018823C5
:1000F000E1F38CE291E00197F1F70E949F018111F9
:100100000C946B0008950C94C701CF93DF9300D03B
:100110001F92CDB7DEB780ED90E09A83898388E0A7
:100120008B83509A589A0E9474018FE690E00E9447
:100130000B0181E090E00E94630161E070E081E0EA
:1001400090E00E944F010E943B01CE0101960E9467
:1001500087010F900F900F90DF91CF910895CF936B
:10016000DF93D62FFB0160E070E0A1E0B0E05E2FEE
:100170005D1B5417B8F4C191BD010C2E02C0660F6F
:10018000771F0A94E2F76F5F7F4F76956795680F48
:10019000791F02C076956795CA95E2F76F3F7105A2
:1001A00009F028F7F9016083852FDF91CF91089539
:1001B000E1E6F0E080E880831082A89584B7877F2D
:1001C00084BFE0E6F0E0808188618083108208953A
:1001D0001092800084E0809381001092850010923C
:1001E0008400089580918400909185000895AC0169
:1001F00080918400909185009C01241B350B283E42
:100200003340B0F708952091840030918500820F2B
:10021000931F0C94F700CF93DF931F92CDB7DEB7F7
:100220009E012F5F3F4F45E063E173E00E94AF0006
:1002300091E0980F909300019981915097BD18BC5F
:1002400095B5977039F025B5909100019770287F8A
:10025000922B95BD298130E0E82FF0E0ED5EFC4F58
:10026000C901008002C0880F991F0A94E2F70F901D
:10027000DF91CF91089585B3897F85BB95B5809136
:1002800000018770987F892B85BD089585B5887F8B
:1002900085BD089585B382FB882780F9089500976E
:1002A00019F0019741F0089584B56295660F660FC5
:1002B000607C8F7305C084B563706295607F8F7CAE
:1002C000682B64BD0895009741F0019759F484B5F7
:1002D0008E7F84BD84B5826002C084B58C7F84BD6E
:1002E00081E0089580E0089514BC15BC16BC18BCCC
:1002F00081E090E00E94630181E008959C0121501B
:1003000031093093CD0081508093CC000895CF9374
:10031000DF93EC01888199810E947E018A819BEFA5
:10032000980F943008F088E098E19093C9008550C8
:10033000880F8093CA0081E0DF91CF91089580916A
:10034000C800881F8827881F08958091C80085FBF2
:10035000882780F908958091C80086FB882780F956
:100360000895CF93C82F0E94A5018823E1F39091AF
:10037000C80090649093C800C093CE00CF910895B8
:100380008091C80087FFFCCF8091CE000895CF9365
:10039000DF93EC018991882319F00E94B101FACF13
:1003A000DF91CF9108958530A0F4673090F421E07B
:1003B00030E0062E01C0220F0A94EAF7E82FF0E0A1
:1003C000EF5CFC4F822F8095908189234111822B15
:1003D00080830895853088F4673078F4E82FF0E062
:1003E000EF5CFC4F21E030E0062E01C0220F0A94A2
:1003F000EAF79081922381E009F480E0089560910A
:100400003003E62FF0E0EF5CFC4F80810E944E024B
:10041000809130038F5F853018F480933003089506
:10042000109230030895109231031092320310920B
:100430003303109234031092350308950E942C0266
:100440000C941302FC01FF2784A1892B84A385A1AE
:10045000892B85A381E00895CF93DF93C2E2D3E097
:10046000899199910E94220283E0C033D807C1F795
:1004700083E090E40E94220280E090E80E94220241
:1004800083E090E10E94220283E090E80E94220231
:1004900083E090E2DF91CF910C942202E091360349
:1004A000F0E0EE0FFF1FE85EFC4F20813181F90183
:1004B000FF2795A1932B95A3E2E2F3E02081318100
:1004C000D901BB2780FF07C095962C919597932F54
:1004D0009095922304C095969C919597932B959611
:1004E0009C938695329693E0E033F90739F7E62F2F
:1004F000F0E0EE0FFF1FE85EFC4F80819181FC0170
:10050000FF2725A1892F8095822385A36093360339
:100510000895009789F0FC012381621B67FD09C0E3
:10052000772767FD7095248130E081E062177307BB
:100530000CF080E08170089580E00895CF93DF9300
:10054000FC01822F309789F19181491770F5228142
:10055000821758F52381621B67FD27C0A62FBB2792
:10056000A7FDB095C481D0E0AC17BD07F4F4692FA6
:100570000E948305480F658170E0CD010E948C05C3
:10058000DC011696842F869586958695AE0FBF1F43
:10059000A80FB11D2C9130E0477002C0359527950A
:1005A0004A95E2F7822F817001C080E0DF91CF9100
:1005B0000895CF93DF93EC010E94E8009E0140E094
:1005C00050E062E17AE780E090E00E94B10530936C
:1005D0003A0320933903DF91CF9108958091370337
:1005E000909138030E94F70080913703909138036F
:1005F0002091390330913A03820F931F909338036F
:1006000080933703089541E0611101C040E0692FF4
:100610000C94D301692F0C94EA0141E0611101C0EF
:1006200040E0692F0C94D3016F927F928F929F923A
:10063000AF92BF92CF92DF92EF92FF920F931F93F0
:10064000CF93DF931F92CDB7DEB7862EB42E6C0109
:10065000862F992787FD90958C199109C7FC939552
:10066000072F112707FD10950D191109D7FC1395B8
:1006700097FD03C0AA24A39402C0AA24AA9417FD3C
:1006800003C09924939402C099249A943C0197FF43
:1006900003C071946194710817FF03C0119501950F
:1006A00011096016710694F07301F594E794C8146B
:1006B00009F16B2DC6010E940D03E01AF10AF7FE45
:1006C00003C0E60CF71CD90CCA0CF1CF7801F594E5
:1006D000E794D71679F06B2DC60179830E940D033C
:1006E000E618F7087981F7FE03C0E00EF11ECA0C88
:1006F000D90CEFCF6B2DC6010F90DF91CF911F91D9
:100700000F91FF90EF90DF90CF90BF90AF909F90B0
:100710008F907F906F900C940D03FF920F931F9317
:10072000CF93DF93182FF92E062FC72FD42F792FB1
:100730000E9414034D2F612F7C2F812F9F2D0E942B
:1007400014034D2F602F7C2F802F9F2D0E941403A8
:100750004D2F602F7C2F812F9C2F0E941403DF913F
:10076000CF911F910F91FF9008950E941302109254
:10077000120110920D010895DF92EF92FF920F93F4
:100780001F93CF93DF93E82E8B01F62ED12E20916D
:10079000030130910401D0E02130310599F5D12ECB
:1007A000DD1AE0910901F0910A018181C0E0D817BA
:1007B000B8F4E0910901F0910A018281C81770F440
:1007C0002C2F4D2F6E2DCF010E949E02682F8C2F53
:1007D000800F9D2D0E940D03CF5FEBCFDF5FDFCF3A
:1007E000E0910901F0910A018281C81740F460E0AC
:1007F0008C2F800F9D2D0E940D03CF5FF1CFDA94D7
:1008000030C0DF5FFD2EF00EE0910901F0910A018A
:100810008181C0E0D817A8F4E0910901F0910A01A4
:100820008281C81770F72C2F4D2F6E2DCF010E949B
:100830009E02682F8F2D9C2F910F0E940D03CF5F7A
:10084000EBCFE0910901F0910A018281C81740F4D1
:1008500060E08F2D9C2F910F0E940D03CF5FF1CF91
:10086000F3948F2D9D2DDF91CF911F910F91FF90CC
:10087000EF90DF9008951F93CF93DF93182FEC0133
:100880009C2F911B8991882349F00E94BC03BC01D5
:100890009C2F911B653014F477FFF2CF892FDF91E5
:1008A000CF911F9108950F931F93CF93DF93EC0186
:1008B0009B0110920D0140930E01109211010091C5
:1008C000090110910A010115110509F448C0F80148
:1008D0008181609107017091080190E00E948C0570
:1008E000BC0180910B0190910C010E949D05CB01F0
:1008F0006AE070E00E948C059093100180930F01D4
:10090000309306012093050140E250E0BE0182E1F0
:1009100091E00E94F20580910101909102010197FE
:10092000F1F4FE0101900020E9F7CF010197F801F1
:10093000618170E06F5F7F4F8C1B0E948305815047
:1009400020910301309104012130310511F497E029
:1009500001C095E0981718F48EEF80931101DF9194
:10096000CF911F910F9108952091030130910401BF
:100970002130310511F476E001C070E04FEF60E006
:100980000E945304089590E090930801809307011A
:1009900008959093020180930101089590930401BA
:1009A00080930301089590930A01809309010895AB
:1009B000CF9380913B0390913C03019690933C032D
:1009C00080933B0320910F01309110018217930710
:1009D00008F468C010923C0310923B03E0910D01B3
:1009E000F0E0EF5FFE4F818981110AC080910E0116
:1009F000823008F457C0815080930E0110920D018F
:100A0000C0910D018C2F90E0FC01EF5FFE4F21891A
:100A1000222309F447C02091010130910201409145
:100A200011012115310521F02130310589F022C055
:100A3000411120C060910501709106018E5E9E4FAC
:100A40000E943B049FEF9C0F980F90930D0112C0E2
:100A5000609105017091060120910301309104011C
:100A60002130310511F4740F01C0641B8E5E9E4F5E
:100A70000E943B04209111012F5F20931101332725
:100A800027FD3095E0910901F0910A01818190E004
:100A9000821793073CF41092110180910D018F5F32
:100AA00080930D01CF910C94FF0190930C018093E2
:100AB0000B010E941E0284E190E090930801809354
:100AC00007010C94B5030E94D80084EF91E00E94C6
:100AD000550582E391E00E94D3048AE00E94C3049A
:100AE0000E94850084EF91E00E94D9020E94EE02EC
:100AF0000E94D8040E9469008823C1F30E946B0001
:100B00000E945900F3CF002480FD060E660F11F0FD
:100B10008695D1F7802D08950024552704C0080E2E
:100B2000591F880F991F009729F076956795B8F39C
:100B30007105B9F7802D952F0895AA1BBB1B51E1B4
:100B400007C0AA1FBB1FA617B70710F0A61BB70B3D
:100B5000881F991F5A95A9F780959095BC01CD01E2
:100B60000895052E97FB1EF400940E94C80557FDBA
:100B700007D00E94D00507FC03D04EF40C94C805A2
:100B800050954095309521953F4F4F4F5F4F0895B9
:100B900090958095709561957F4F8F4F9F4F0895E9
:100BA000A1E21A2EAA1BBB1BFD010DC0AA1FBB1F71
:100BB000EE1FFF1FA217B307E407F50720F0A21BE3
:100BC000B30BE40BF50B661F771F881F991F1A9450
:100BD00069F760957095809590959B01AC01BD017A
:100BE000CF010895FB01DC014150504048F00190D5
:100BF0000D920020C9F701C01D9241505040E0F70E
:060C00000895F894FFCFF7
:100C060001000000000000140000000000000000C9
:100C160000000000000000000000000000000000CE
:100C260000000000000000000000000000000000BE
:100C36000000010507205F050000000000C61863DC
:100C460080014A290000004A7DF59502C417471F16
:100C560001632222320626155193058608000000FC
:100C66008808210802822084880080545709008061
:100C7600904F0800000060880000800F0000000010
:100C8600008C0100222202002EE63AA303C4104281
:100C960088032E4244C4072E4207A30388A9F411F1
:100CA600023F8407A3032E8617A3033F424408018D
:100CB6002E4617A3032E460FA303C018600C00C0D0
:100CC600186088008888200802007CF001008220D5
:100CD6008888002E424400012E425BAB0344C51FA8
:100CE60063042FC617E3032E8610A2032FC618E34C
:100CF600033F8417C2073F841742002E861EA307B0
:100D060031C61F63048E10428803104218A30331B4
:100D160095515204218410C20771D71A630471D603
:100D26001C63042EC618A3032FC61742002EC658EE
:100D360093052FC61763042E0607A3039F104208C8
:100D46000131C618A30331C618150131C65AAB02C4
:100D5600312AA26204312A4208011F2222C2072731
:100D66008410C20120088220000E2184900344458D
:100D7600000000000000C00782200000000038E8E4
:100D8600A30721B419E30300B810A20310DA1CA3C9
:100D96000700B8F883034C8A238400C0C7E8A10380
:100DA60021B419630404184288030830849201218F
:100DB600A4324A02861042880300AC5A630400B487
:100DC60019630400B818A30300BCF8420000D8EC6D
:100DD600210400B419420000B8E0E003421C2124BB
:100DE6000300C418B30500C418150100C45AAB02A9
:100DF600004445540400C4E8A103007C44C40788A9
:100E060010410802841042080182104488000088BC
:100E16008A0000000306080A0340008003100380CE
:100E2600032000400020001000080004000200011A
:00000001FF
