:100000000C943A000C9444000C9444000C9444006A
:100010000C9444000C9444000C9444000C94440050
:100020000C9444000C9444000C9444000C94440040
:100030000C9444000C9444000C9444000C94440030
:100040000C9444000C9444000C9444000C94440020
:100050000C9444000C9444000C9444000C94440010
:100060000C9444000C9444000C9444000C94440000
:100070000C94440011241FBECFEFD4E0DEBFCDBFEF
:100080000E9456000C9482000C940000E1E6F0E01F
:1000900080E880831082A89584B7877F84BFE0E6DC
:1000A000F0E0808188618083108208950E9446007C
:1000B00057985F983E9A469A279A2F9A3C9A449A64
:1000C0003F9A479A3D9A459A269A2E9A259A2D9AB2
:1000D000249A2C9A239A2B9A229A2A9A219A299A1C
:1000E000209A289A4F9B07C029982F9847982C98B8
:1000F0002D984498F7CF299A2F9A479A2C9A2D9A9F
:08010000449AF0CFF894FFCF00
:00000001FF
