:100000000C943A000C944C000C944C000C944C0052
:100010000C944C000C944C000C944C000C944C0030
:100020000C944C000C944C000C944C000C944C0020
:100030000C944C000C944C000C944C000C944C0010
:100040000C944C000C944C000C944C000C944C0000
:100050000C944C000C944C000C944C000C944C00F0
:100060000C944C000C944C000C944C000C944C00E0
:100070000C944C0011241FBECFEFD4E0DEBFCDBFE7
:1000800011E0A0E0B1E001C01D92A230B107E1F79C
:100090000E948F000C9455020C940000E1E6F0E001
:1000A00080E880831082A89584B7877F84BFE0E6CC
:1000B000F0E080818861808310820895BC011092F5
:1000C000800085E0809381001092820080E090E0C3
:1000D0000E945C012DEB37E346E059E30E94EA0100
:1000E0009B01AC0160E070E080E89FE30E94C800E3
:1000F0000E94300170930101609300010895809186
:100100000001909101012091840030918500281711
:100110003907C8F3109285001092840008950E9458
:100120004E003E9A469A279A2F9A3C9A449A3F9AB2
:10013000479A3D9A459A269A2E9A259A2D9A249A5C
:100140002C9A239A2B9A229A2A9A219A299A209AAF
:10015000289A82E390E00E945E00C0E0D0E00E9416
:100160007F00C130D10549F43E9A469A3D9A4598A0
:10017000269A2E98209A289808C03D9A459A269A41
:100180002E9A209A28983E9A469881E0C827E7CF71
:100190000CD0E6C0DED040F0D5D030F021F45F3F87
:1001A00019F0C7C0511110C1CAC0EBD098F3992300
:1001B000C9F35523B1F3951B550BBB27AA2762172B
:1001C0007307840738F09F5F5F4F220F331F441F70
:1001D000AA1FA9F333D00E2E3AF0E0E830D09150A8
:1001E0005040E695001CCAF729D0FE2F27D0660F95
:1001F000771F881FBB1F261737074807AB07B0E8D4
:1002000009F0BB0B802DBF01FF2793585F4F2AF0E9
:100210009E3F510568F08DC0D7C05F3FECF3983E1C
:10022000DCF3869577956795B795F7959F5FC9F746
:10023000880F911D9695879597F90895E1E0660FCF
:10024000771F881FBB1F621773078407BA0720F048
:10025000621B730B840BBA0BEE1F88F7E0950895B1
:1002600098D088F09F5790F0B92F9927B751A0F0F8
:10027000D1F0660F771F881F991F1AF0BA95C9F73A
:1002800012C0B13081F09FD0B1E008959CC0672FBB
:10029000782F8827B85F39F0B93FCCF386957795EA
:1002A0006795B395D9F73EF49095809570956195D3
:1002B0007F4F8F4F9F4F0895E89409C097FB3EF4FE
:1002C00090958095709561957F4F8F4F9F4F9923A3
:1002D000A9F0F92F96E9BB279395F6958795779521
:1002E0006795B795F111F8CFFAF4BB0F11F460FFE1
:1002F0001BC06F5F7F4F8F4F9F4F16C0882311F039
:1003000096E911C0772321F09EE8872F762F05C04C
:10031000662371F096E8862F70E060E02AF09A95E7
:10032000660F771F881FDAF7880F9695879597F9DC
:10033000089597F99F6780E870E060E008959FEF67
:1003400080EC089500240A9416161706180609066C
:10035000089500240A94121613061406050608953B
:10036000092E0394000C11F4882352F0BB0F40F4C3
:10037000BF2B11F460FF04C06F5F7F4F8F4F9F4F03
:10038000089557FD9058440F551F59F05F3F71F085
:100390004795880F97FB991F61F09F3F79F08795EC
:1003A0000895121613061406551FF2CF4695F1DF75
:1003B00008C0161617061806991FF1CF8695710505
:1003C000610508940895E894BB2766277727CB0139
:1003D00097F908950AD0C4CFB5DF28F0BADF18F036
:1003E000952309F0A6CFABCFEFCFCBDFA8F39923AE
:1003F000D9F35523C9F3950F50E0551FAA27EE27CF
:10040000FF27BB2700240894679520F4E20FF31F11
:10041000B41F0A1E220F331F441FAA1F6695A9F797
:10042000779530F4F30FB41F0A1E121E08F463957B
:10043000330F441FAA1F221F769599F7879520F442
:10044000B40F0A1E121E631F440FAA1F221F331F60
:100450008695A9F7862F712D602D11249F57504046
:100460008AF0E1F088234AF0EE0FFF1FBB1F661FE2
:10047000771F881F91505040A9F79E3F510570F09B
:1004800058CFA2CF5F3FECF3983EDCF3869577958B
:100490006795B795F795E7959F5FC1F7FE2B880F96
:0E04A000911D9695879597F90895F894FFCFD2
:00000001FF
