:100000000C943A000C9444000C9444000C9444006A
:100010000C9444000C9444000C9444000C94440050
:100020000C9444000C9444000C9444000C94440040
:100030000C9444000C9444000C9444000C94440030
:100040000C9444000C9444000C9444000C94440020
:100050000C9444000C9444000C9444000C94440010
:100060000C9444000C9444000C9444000C94440000
:100070000C94440011241FBECFEFD4E0DEBFCDBFEF
:100080000E946F000C947C000C940000E1E6F0E00C
:1000900080E880831082A89584B7877F84BFE0E6DC
:1000A000F0E08081886180831082089589B199276A
:1000B00087FD9095892F881F8827881F90E00895D5
:1000C00057985F980895429A08954298089588B184
:1000D00094E0892788B908953A9A429808950E9431
:1000E00046000E946C000E9460000E945600892B0E
:0C00F000E1F30E946700F9CFF894FFCF05
:00000001FF
