:100000000C943A000C9457000C9457000C94570031
:100010000C9457000C9457000C9457000C94570004
:100020000C9457000C9457000C9457000C945700F4
:100030000C9457000C9457000C9457000C945700E4
:100040000C9457000C9457000C9457000C945700D4
:100050000C9457000C9457000C9457000C945700C4
:100060000C9457000C9457000C9457000C945700B4
:100070000C94570011241FBECFEFD4E0DEBFCDBFDC
:1000800012E0A0E0B1E0E0E4FEE102C005900D92D4
:10009000A63CB107D9F713E0A6ECB2E001C01D926F
:1000A000A038B107E1F70E942E0D0C941E0F0C949E
:1000B0000000FC01962F842F65E00E949E0D980F92
:1000C000E90FF11D20830895EF92FF920F931F9384
:1000D000CF93DF938091EA0281114CC08CE291E0D2
:1000E0000E94EA0C84EF91E00E94680C81E090E0AD
:1000F0000E945E0C81E090E00E94630C8AE00E9406
:10010000580CC2EDD2E08AECE82E82E0F82E06EC24
:1001100012E0CE010E943103D7018D939D937D01A2
:10012000F80111928F012696F2E0CA3EDF0789F7A7
:10013000E0E1F3E0119283E0E333F807D9F76EE0F2
:1001400071E08091CC029091CD020E94D70264E1CF
:1001500071E08091D0029091D1020E94D7026AE1B1
:1001600071E08091CE029091CF020E94D70281E08F
:100170008093EA0280910C0190910D01039741F563
:10018000CCECD2E007EC12E0899199910E94EA024E
:10019000D8018D938D01B2E0C23DDB07A9F7E12CB8
:1001A000C0E1D3E08E01F12CD801ED918D01F0E09A
:1001B000EA53FD4F60818F2D9E2D0E94A20AF39479
:1001C000B5E0FB12F1CF2596E394E7E0EE12EACF1B
:1001D000DF91CF911F910F91FF90EF900C946D0CD8
:1001E00080910C0390910D030C94AA086115710580
:1001F00021F06130710521F0089569E972E002C0D3
:100200006CE972E080910C0390910D030C948008CE
:100210000F931F93CF93DF93CDB7DEB7AC970FB695
:10022000F894DEBF0FBECDBF8091ED02811129C0D1
:100230000E94040761E080E00E94FC0642E050E07A
:1002400063E373E080E090E00E944D068091330309
:100250008F3F21F4109233031092340300E113E036
:1002600029E530E047E065E084E690E00E94E403A1
:1002700060E070E086EF90E00E94170481E08093D8
:10028000ED0280910C0190910D018230910509F4ED
:1002900061C080F4019709F0C0C089EA92E00E9431
:1002A000490C6EE971E080910C0390910D030E945E
:1002B00080084DC08330910521F0049709F43FC0B8
:1002C000ACC00E9420048111A8C06EE972E0CE018A
:1002D00001960E94420ECE0101968C010196F80112
:1002E00020812111FACF0E94470640E0B8010E9408
:1002F000F80CC801FC01019620812111FBCF8FE28F
:1003000081938F010E944A0640E0B8010E94F80CD8
:100310000E944A0BCE0101960E94490C65E571E0EE
:1003200080910C0390910D030E9480081092EC02C2
:1003300061E080E00E94FC0684E090E06AC0809169
:10034000EC028F5F8093EC02883C08F466C085E085
:1003500090E05FC00E944A0B809134038F5F8093CE
:100360003403809133038330E9F028F4813061F065
:10037000823091F004C08430E1F0853011F110E05A
:100380001E7F1D7F04E006C010E01E7FFFEFF0FB24
:1003900011F903E083E01DC010E08FEF80FB10F93E
:1003A0001D7FF7CF10E0EFEFE0FB10F9E0FB11F954
:1003B000F0CF10E0FFEFF0FB10F9F0FB11F903E0D4
:1003C00007C010E08FEF80FB10F980FB11F902E00D
:1003D00084E00E94D503802F0E94D203812F0E94C7
:1003E000E1030E94D50542E050E063E373E080E062
:1003F00090E00E94630662EC72E080910C039091A1
:100400000D030E94800860E080E00E94FC0683E00B
:1004100090E090930D0180930C01AC960FB6F89488
:10042000DEBF0FBECDBFDF91CF911F910F91089519
:100430001F93CF93DF931F92CDB7DEB7162F972F61
:10044000A3ECB2E0E62FF72F2D91222311F0219398
:10045000FBCF40E0BF0199830E94F80C0E944A0B39
:10046000812F99810F90DF91CF911F910C94490CAE
:1004700080910E0390910F030E94F009882319F0D8
:100480005C9A5E9808955C985E9A0895CF93DF9386
:10049000CDB7DEB7AC970FB6F894DEBF0FBECDBFB9
:1004A0008091EB02811105C00E94590881E0809380
:1004B000EB020E94D10781E00E94A1078823D1F0BE
:1004C00080910C0190910D018330910589F0069780
:1004D00089F480913303843018F48F5F8093330361
:1004E000BE016F5F7F4F809133030E94180202C0EC
:1004F0000E94A90583E00E94A1078823D1F0809182
:100500000C0190910D018330910589F0069789F4D3
:1005100080913303823018F0815080933303BE0101
:100520006F5F7F4F809133030E94180202C00E94C8
:10053000AC0583E00E94A107882399F080910C010B
:1005400090910D01059769F486E090E090930D017C
:1005500080930C01BE016F5F7F4F809133030E9437
:10056000180284E00E94A1078823C1F080910C0149
:1005700090910D018530910541F08630910541F053
:10058000039761F40E94AF0509C082E090E002C0C9
:1005900085E090E090930D0180930C01AC960FB62E
:1005A000F894DEBF0FBECDBFDF91CF910895FC015F
:1005B00071836083128213821482158281E0089510
:1005C000FC01808191810895FC0112821382648371
:1005D00081E00895FC01A081B181109709F43FC02A
:1005E00082818F5F82839C91891720F1128285819D
:1005F0008F5F85838830F0F0158283818F5F8383DE
:1006000012969C9112978917A8F0138284818F5FAC
:10061000848315969C911597911109C014969C910D
:100620001497891738F01182108281E00895891794
:1006300008F01482928111968C911197981760F4AA
:10064000938113968C911397981730F481E024814D
:1006500014969C91291708F080E08170089580E03D
:100660000895FC0111821082128213821482158275
:1006700008959B01E0916303F0916403DC011196FE
:100680004C9111976C918091650390916603099448
:10069000DC012091410330E040E0842F992787FD61
:1006A000909582179307CCF463E070E00E94A70D49
:1006B000FC01EB5CFC4F8281882369F0EA17FB07A1
:1006C00051F090818C91981306C0918111968C9174
:1006D0001197981729F04F5FE0CF80E090E00895E0
:1006E000CF010895CF93C82F60E070E087E593E0D5
:1006F0000E943903909157039C0F809159039817DA
:100700002CF497FF04C09FEF980F01C090E09093E6
:10071000570361E070E087E593E0CF910C943903D3
:10072000E0916703F0916803309731F0BC0180914C
:10073000690390916A0309940895FB01DC01129604
:100740001C92AEE5B3E08C9181508C93ABE5B3E0A5
:100750008C918F5F8C93128260E070E0CF010E94D9
:10076000390380E090E00C94900380936203089535
:10077000682F70E080915F03909160030E94C40D28
:1007800070934303609342030895682F70E0809153
:100790005F03909160030E94C40D709354036093B3
:1007A00053030895809361030895853008F084E031
:1007B000809341030895853008F084E080935203CC
:1007C000089580936B0308950F931F9360935903CB
:1007D00040935A033093640320936303109366039A
:1007E0000093650310926C039093600380935F0302
:1007F0001092680310926703EBE6F3E080818E7F2E
:100800008D7F808383E08093410382E08093520355
:1008100080E10E94C50382E00E94B80384E08093D7
:10082000610385E0809362031F910F910895909377
:1008300068038093670370936A0360936903089564
:100840000F931F93CF93DF9380915503909156039D
:100850000196909356038093550320915303309152
:1008600054038217930730F410916C03112309F499
:100870006AC13EC0109256031092550310E0812FBA
:10088000992787FD90952091520330E082179307B6
:100890005CF763E070E00E94A70DEC01CA5BDC4FDF
:1008A0008A81882319F1988180915703981305C094
:1008B000998180915803981729F060E070E0CE018B
:1008C0000E94390389818150898387FD0EC063E0CE
:1008D00070E0CE010E943903CE010E9448030097C8
:1008E00029F0BE010E949D03F7CF1A821F5FC7CF78
:1008F00020914403309145032F5F3F4F30934503D0
:1009000020934403809142039091430328173907B1
:1009100008F419C11092450310924403C0E08C2FD3
:10092000992787FD90952091410330E08217930726
:1009300084F463E070E00E94A70D8B5C9C4FFC0187
:100940002281222321F060E070E00E943903CF5F12
:10095000E6CF00E0802F992787FD909520914103F5
:1009600030E0821793070CF09CC063E070E00E94B7
:10097000A70DEC01CB5CDC4F8A81882309F48FC082
:1009800089818F5F89830E94320E8170880F815028
:1009900090916B03288191FF11C0609157037727D5
:1009A00067FD7095482F552747FD5095420F511D03
:1009B00027FD5A956417750709F48195280F288338
:1009C00027FD04C0909159032917A4F090916B035F
:1009D00090FF0DC0332727FD309537FF03C03195B9
:1009E0002195310980915903821B888303C0880FA8
:1009F000281B2883998180915A0398172CF462E070
:100A000070E0CE010E9439034981842F992787FD28
:100A1000909520915A03332727FD309521503109B5
:100A2000821793074CF540E0842F992787FD909516
:100A30002091520330E0821793078CF563E070E059
:100A40000E94A70DFC01EA5BFC4F8281882359F0CC
:100A5000EC17FD0741F090818881981304C09181C3
:100A60008981981711F04F5FDFCF3097C1F0BF0138
:100A7000CE010E949D03D7CF80915803481356C0E2
:100A800080915C038F5F80935C0390916203891770
:100A900010F010926C0381E090E00E9490030F5FD1
:100AA00059CF80915E03882319F0C091610301C082
:100AB000C2E00E94320E6C2F70E00E94D80D892B8C
:100AC00009F041C02091410330E040E0842F992794
:100AD00087FD909582179307B4F563E070E00E945C
:100AE000A70DEC01CB5CDC4F8A81882311F04F5FAE
:100AF000EDCF198201E00E94320E609159037727F1
:100B000067FD70950E94D80D88830A83CE010E94EC
:100B10004803892B81F780915E038F5F80935E038A
:100B200062E070E0CE010E9439030DC01A8280910C
:100B30005E03815080935E0361E070E087E593E09F
:100B40000E943903ACCF812FDF91CF911F910F917C
:100B5000089581E00C9472038FEF0C94720320913E
:100B6000520330E040E0842F992787FD909582174B
:100B70009307D4F463E070E00E94A70DFC01EA5BE8
:100B8000FC4F8281882311F04F5FEDCF8091570396
:100B9000909158039183808381E0828380915D03EB
:100BA0008F5F80935D03089508950F931F93CF93F4
:100BB000DF9300D0CDB7DEB71092560310925503E5
:100BC000109245031092440340E0842F992787FD3B
:100BD00090952091520330E08217930754F463E01C
:100BE00070E00E94A70D8A5B9C4FFC0112824F5F50
:100BF000ECCF40E0842F992787FD90952091410309
:100C000030E08217930754F463E070E00E94A70D70
:100C10008B5C9C4FFC0112824F5FECCF00E0809117
:100C2000590308178CF410E080915A03181754F4F4
:100C300009831A8360E070E0CE0101960E943903B7
:100C40001F5FF2CF0F5FEBCF87FD8F5F85958E7FA4
:100C50008093570380915A0381508093580361E039
:100C600070E087E593E00E94390310925E031092D2
:100C70005B0310925C0310925D0381E080936C0330
:100C80000F900F90DF91CF911F910F910895809158
:100C90005B03089580915D0308959B01240F351F28
:100CA000FB01861B970BBC016E0F7F1FE217F3073A
:100CB00041F0F999FECF72BD61BDF89A60B56193BC
:100CC000F2CFCA0108959B01240F351FFB01861B3B
:100CD000970BBC016E0F7F1FE217F30749F0A1913C
:100CE000F999FECF72BD61BDA0BDFA9AF99AF1CF14
:100CF000CA010895E1E6F0E080E880831082A895BB
:100D000084B7877F84BFE0E6F0E0808188618083DC
:100D1000108208951092800084E0809381001092E8
:100D20008500109284000895809184009091850040
:100D30000895AC0180918400909185009C01241B52
:100D4000350B283E3340B0F7089520918400309150
:100D50008500820F931F0C9499068530A0F46730AC
:100D600090F421E030E0062E01C0220F0A94EAF749
:100D7000E82FF0E0E259FC4F822F80959081892383
:100D80004111822B80830895853088F4673078F490
:100D9000E82FF0E0E259FC4F21E030E0062E01C0E0
:100DA000220F0A94EAF79081922381E009F480E00F
:100DB000089560916D03E62FF0E0E259FC4F8081C9
:100DC0000E94330780916D038F5F853018F4809304
:100DD0006D03089510926D03089510926E031092A2
:100DE0006F031092700310927103109272030895B2
:100DF0000E9411070C94ED06811105C0662311F0C5
:100E0000429A0895429808953A9A429A0895FC01A8
:100E1000FF2784A1892B84A385A1892B85A381E049
:100E20000895CF93DF93CAE7D2E0899199910E9408
:100E3000070782E0C838D807C1F783E090E40E9432
:100E4000070780E090E80E94070783E090E10E9496
:100E5000070783E090E80E94070783E090E2DF91B4
:100E6000CF910C940707E0917303F0E0EE0FFF1FA2
:100E7000E059FD4F20813181F901FF2795A1932B86
:100E800095A3EAE7F2E020813181D901BB2780FFF9
:100E900007C095962C919597932F9095922304C017
:100EA00095969C919597932B95969C9386953296C3
:100EB00092E0E838F90739F7E62FF0E0EE0FFF1F70
:100EC000E059FD4F80819181FC01FF2725A1892FE9
:100ED0008095822385A36093730308956230710522
:100EE00011F160F46130710551F5FC01FF2784A117
:100EF0009095892384A385A189231EC06330710541
:100F000041F064307105D9F4FC01FF2784A1892BDD
:100F100010C0FC01FF2784A1892B84A325A1892F60
:100F20008095822309C0FC01FF2784A1292F2095E9
:100F3000822384A385A1892B85A381E0089580E085
:100F40000895E82FF0E0EE0FFF1FEC58FC4F808172
:100F5000882321F0818191E0892701C080E08170A0
:100F60000895E82FF0E0EE0FFF1FEC58FC4F808152
:100F7000811102C0818101C080E081700895E82F55
:100F8000F0E0EE0FFF1FEC58FC4F80810895E82F32
:100F9000F0E0EE0FFF1FEC58FC4F908181E08927B5
:100FA00008954F925F927F928F929F92AF92BF92DD
:100FB000CF92DF92EF92FF920F931F93CF93DF9325
:100FC00000D0CDB7DEB754E7452E53E0552E65E788
:100FD000E62E63E0F62E78E8A72E72E0B72EE6E064
:100FE0007E2EF2018081F7018083F501019111913C
:100FF0005F016801DD24F60184A1812E992425A1D9
:1010000030E02821392141E0232B09F440E090E031
:1010100088219921892B29F0442341F024E030E0F4
:101020000AC0442331F022E030E005C023E030E084
:1010300002C021E030E064E070E0C80129833A8317
:101040000E946E0762E070E0C8010E946E07872D63
:101050008A95F1F7F60183A190E08821992141E07A
:1010600029813A81892B09F040E0F2014083B901DE
:10107000C8010E946E07F2E04F0E511C82E0E80E9C
:10108000F11CEEE74E16E3E05E0609F0AACF0F90E2
:101090000F90DF91CF911F910F91FF90EF90DF9014
:1010A000CF90BF90AF909F908F907F905F904F9028
:1010B00008950895FC018589968960EF70E00E948B
:1010C000A70D9C018685648570E090E00E94A70DC5
:1010D000BC01660F771F660F771FC9010E94C40D00
:1010E00063830895CF93DF93EC01E989FA8940E0A7
:1010F0006D858B899C8909951D86DF91CF91089517
:10110000CF93DF93EC0178876F837E836D831A869C
:1011100019861B8684E0888B8C87CE010E945A0832
:10112000CE010E9472081982188281E08A83DF91C1
:10113000CF910895FC0166870C945A08FC016787DB
:10114000089541E0FC0125813681232B09F440E01C
:10115000842F0895EF92FF920F931F93CF93DF9305
:10116000EC010D811E810115110509F4EBC0888188
:101170009981009779F0019799838883892B09F0E9
:10118000E1C0CE01DF91CF911F910F91FF90EF90C1
:101190000C9472088A81882309F4D4C081508A8310
:1011A0008111D0C0D801EC91E11104C0CE010E94A0
:1011B0007208C6C051E0D80111968C911197833204
:1011C00019F050E0119602C0D80112964C914B32A2
:1011D00011F04D3211F4119601C040E09D0160E024
:1011E00080E089012F5F3F4FD8019C9170ED790F0E
:1011F0007A3038F46AE00E949E0D8053890F61E0D6
:10120000F0CFEE33F1F094F4EA3209F447C02CF455
:10121000E03209F095C0E12C66C0EA3331F1EC33DD
:1012200009F08EC01A8709871B86BCCFE83434F4D6
:10123000E1340CF040C0E034B1F182C0EB35C1F0D4
:101240007FC02B852F5F2B87811101C082E0332760
:1012500027FD309590E0281739070CF0A3CF0985BA
:101260001A850115110509F09DCF0F8118859ACFB8
:101270002B85332727FD309590E0019728173907F4
:1012800009F490CFF8018F018191882309F48ACF66
:101290008B3509F487CF8E33B1F784CF882309F4D7
:1012A00081CF8C8704C0882309F47CCF8E87CE0140
:1012B0000E945A0877CFFF27E7FDF095EF5AFD4FC0
:1012C000908151119F5F6111888B4B3211F4945FB3
:1012D00003C04D3209F49C5088898F5F6CE00E94F6
:1012E0009E0DE92EE80E980191E0901B8901F92EE0
:1012F000F20EF90180812F5F3F4F8F32B9F3FF0C5F
:10130000FF0C8E3229F48F2D8695F80E890104C0CA
:101310008C3211F48901F694E989FA894F856E2D92
:101320008B899C890995ED862C812A838B816F2D71
:1013300070E090E00E94A70D821B91099983888339
:101340001E830D83DF91CF911F910F91FF90EF903E
:101350000895FC01CB01768B658B528B418B348BCE
:10136000238B24E62787158611821082128262E37E
:1013700070E00E94A70D68EE73E00E94C40D6483C4
:1013800084E0848788EC8687CF010895FC0161831F
:1013900042830895FC01662311F0411103C01182BC
:1013A000128208956832D8F028ED260F822F6CE063
:1013B0000E94B80D982F64EF0E949E0D820FA581A8
:1013C000B681A80FB11D8C91915010F08695FCCF7D
:1013D0008183642F70E090E00E94A70D92830895AE
:1013E000FC0180818F5F80839181891708F01082D2
:1013F00081E020819281291708F080E00895FC01A6
:101400007483638356834583118212820895009703
:1014100089F0FC012381621B67FD09C0772767FD06
:101420007095248130E081E0621773070CF080E052
:101430008170089580E00895CF93DF93FC01822F9F
:10144000309789F19181491770F52281821758F5FB
:101450002381621B67FD27C0A62FBB27A7FDB09580
:10146000C481D0E0AC17BD07F4F4692F0E949E0D33
:10147000480F658170E0CD010E94A70DDC01169632
:10148000842F869586958695AE0FBF1FA80FB11D38
:101490002C9130E0477002C0359527954A95E2F7C8
:1014A000822F817001C080E0DF91CF910895182FC5
:1014B000092FF62E0E948A060E949406C12FD02F73
:1014C0008E819F810E949906E881F9818A819B81A2
:1014D00009952E813F818C819D81280F391F3F8383
:1014E0002E830E949406E12FF02F2FEF3FEF60E054
:1014F0006F1531F3AE2F7F2F468157816C01C41ACF
:10150000D50AA601BFEFCB16BFE7DB0610F4EF014B
:10151000D7CF5195419551094217530718F0A901AA
:10152000AC2F7D2F6F5F38969A01CA2FD72FE0CF4F
:1015300041E0611101C040E0692F0C94AD06692FB4
:101540000C94C40641E0611101C040E0692F0C9485
:10155000AD066F927F928F929F92AF92BF92CF9281
:10156000DF92EF92FF920F931F93CF93DF931F921F
:10157000CDB7DEB7862EB42E6C01862F992787FD56
:1015800090958C199109C7FC9395072F112707FD9A
:1015900010950D191109D7FC139597FD03C0AA24C6
:1015A000A39402C0AA24AA9417FD03C0992493947B
:1015B00002C099249A943C0197FF03C071946194EE
:1015C000710817FF03C01195019511096016710686
:1015D00094F07301F594E794C81409F16B2DC601DA
:1015E0000E94A20AE01AF10AF7FE03C0E60CF71CFB
:1015F000D90CCA0CF1CF7801F594E794D71679F09D
:101600006B2DC60179830E94A20AE618F70879813A
:10161000F7FE03C0E00EF11ECA0CD90CEFCF6B2D04
:10162000C6010F90DF91CF911F910F91FF90EF9026
:10163000DF90CF90BF90AF909F908F907F906F90F2
:101640000C94A20AFF920F931F93CF93DF93182F4E
:10165000F92E062FC72FD42F792F0E94A90A4D2FBC
:10166000612F7C2F812F9F2D0E94A90A4D2F602F63
:101670007C2F802F9F2D0E94A90A4D2F602F7C2F39
:10168000812F9C2F0E94A90ADF91CF911F910F916A
:10169000FF9008950E94ED061092310110922C01E6
:1016A0000895DF92EF92FF920F931F93CF93DF93F2
:1016B000E82E8B01F62ED12E2091220130912301AC
:1016C000D0E02130310599F5D12EDD1AE0912801C5
:1016D000F09129018181C0E0D817B8F4E091280188
:1016E000F09129018281C81770F42C2F4D2F6E2D97
:1016F000CF010E941C0A682F8C2F800F9D2D0E9405
:10170000A20ACF5FEBCFDF5FDFCFE0912801F0913E
:1017100029018281C81740F460E08C2F800F9D2D35
:101720000E94A20ACF5FF1CFDA9430C0DF5FFD2EB6
:10173000F00EE0912801F09129018181C0E0D817D5
:10174000A8F4E0912801F09129018281C81770F76F
:101750002C2F4D2F6E2DCF010E941C0A682F8F2D2C
:101760009C2F910F0E94A20ACF5FEBCFE09128013E
:10177000F09129018281C81740F460E08F2D9C2FE1
:10178000910F0E94A20ACF5FF1CFF3948F2D9D2D70
:10179000DF91CF911F910F91FF90EF90DF9008950F
:1017A0001F93CF93DF93182FEC019C2F911B8991EE
:1017B000882349F00E94510BBC019C2F911B65307E
:1017C00014F477FFF2CF892FDF91CF911F91089505
:1017D0000F931F93CF93DF93EC019B0110922C0189
:1017E00040932D01109230010091280110912901A0
:1017F0000115110509F448C0F801818160912601A5
:101800007091270190E00E94A70DBC0180912A01F0
:1018100090912B010E94C40DCB016AE070E00E9400
:10182000A70D90932F0180932E01309325012093D3
:10183000240140E250E0BE0181E391E00E94490EA4
:1018400080912001909121010197F1F4FE01019016
:101850000020E9F7CF010197F801618170E06F5F27
:101860007F4F8C1B0E949E0D815020912201309150
:1018700023012130310511F497E001C095E098175C
:1018800018F48EEF80933001DF91CF911F910F916B
:10189000089520912201309123012130310511F466
:1018A00076E001C070E04FEF60E00E94E80B089521
:1018B00090E0909327018093260108959093210151
:1018C000809320010895909323018093220108952D
:1018D00090932901809328010895CF9380917E03EE
:1018E00090917F03019690937F0380937E032091D4
:1018F0002E0130912F018217930708F468C01092CF
:101900007F0310927E03E0912C01F0E0E05EFE4F39
:10191000818981110AC080912D01823008F457C05D
:10192000815080932D0110922C01C0912C018C2F9D
:1019300090E0FC01E05EFE4F2189222309F447C0BC
:101940002091200130912101409130012115310574
:1019500021F02130310589F022C0411120C0609171
:101960002401709125018F5C9E4F0E94D00B9FEF48
:101970009C0F980F90932C0112C0609124017091DC
:10198000250120912201309123012130310511F4EC
:10199000740F01C0641B8F5C9E4F0E94D00B20917E
:1019A00030012F5F20933001332727FD3095E091E0
:1019B0002801F0912901818190E0821793073CF47E
:1019C0001092300180912C018F5F80932C01CF9178
:1019D0000C94D90690932B0180932A010E94F8065B
:1019E00084E190E090932701809326010C944A0BA8
:1019F000CF93DF9300D000D0CDB7DEB7382FFB01F7
:101A000084E689838AE08A8381E08B831C8250E0AC
:101A1000A1E0B0E0AC0FBD1FA50FB11D2C9122239A
:101A2000A9F0832F622F0E94B80D411104C08111CB
:101A300002C0213049F490E3980F9083622F0E94F6
:101A40009E0D381B319641E05F5FE2CF10820F9010
:101A50000F900F900F90DF91CF9108950F931F93E8
:101A6000CF93DF93CDB7DEB7A8970FB6F894DEBF5C
:101A70000FBECDBF8E010F5F1F4F88E2F80111929C
:101A80008A95E9F788E392E09A83898386E090E07B
:101A90009E838D8380EF90E09A87898788E391E029
:101AA0009E878D8724E630E03A8B298B28E630E04C
:101AB0003E8B2D8B26E432E03A8F298F2AE136E0E7
:101AC0003E8F2D8F28E031E03AA329A39EA38DA35A
:101AD0000E947A0640E051E068E873E18EEE92E001
:101AE0000E94FF0990930F0380930E03549A5C9811
:101AF000569A5E9820910E0330910F034AEC59E0FC
:101B000064E670E085EF92E00E94A90990930D03CE
:101B100080930C0368EC0E949A0865E0C8010E945B
:101B2000570A80E090E0A8960FB6F894DEBF0FBE8B
:101B3000CDBFDF91CF911F910F910895002480FDBB
:101B4000060E660F11F08695D1F7802D08950024BA
:101B5000552704C0080E591F880F991F009729F0B8
:101B600076956795B8F37105B9F7802D952F08958F
:101B7000991B79E004C0991F961708F0961B881FDF
:101B80007A95C9F780950895AA1BBB1B51E107C040
:101B9000AA1FBB1FA617B70710F0A61BB70B881FFD
:101BA000991F5A95A9F780959095BC01CD0108958C
:101BB00097FB072E16F4009407D077FD09D00E94FA
:101BC000C40D07FC05D03EF4909581959F4F089574
:101BD000709561957F4F0895A0E0B0E0E2EFFDE0E1
:101BE0000C949D0EEC01688179818A819B8161153D
:101BF00071058105910521F464E279ED8BE597E0AB
:101C00002DE133EF41E050E00E94580E49015A01A6
:101C100027EA31E440E050E00E946F0E69017A014A
:101C2000C501B4012CEE34EF4FEF5FEF0E946F0E51
:101C300089019A01D701C601800F911FA21FB31F0E
:101C4000B7FF03C00197A109B04888839983AA838D
:101C5000BB839F77CDB7DEB7ECE00C94B90E0E9442
:101C6000EC0D089581E591E00E94EC0D0895A0E04F
:101C7000B0E08093510190935201A0935301B0932F
:101C800054010895FB01DC0101900D920020E1F761
:101C90000895FB01DC014150504048F001900D9245
:101CA0000020C9F701C01D9241505040E0F708954F
:101CB000052E97FB1EF400940E948F0E57FD07D04F
:101CC0000E94CE0E07FC03D04EF40C948F0E50955C
:101CD0004095309521953F4F4F4F5F4F0895689441
:101CE0000010E894A0E0B0E0E8E7FEE00C949F0E5E
:101CF000EFEFE7F959016A015E23550FEE08FE2C5C
:101D000087019B01AC019E23990F660B762FCB01B7
:101D10000E94F00ECDB7DEB7EAE00C94BB0E9095B2
:101D20008095709561957F4F8F4F9F4F08952F92AB
:101D30003F924F925F926F927F928F929F92AF925B
:101D4000BF92CF92DF92EF92FF920F931F93CF93A8
:101D5000DF93CDB7DEB7CA1BDB0B0FB6F894DEBF3F
:101D60000FBECDBF09942A88398848885F846E8465
:101D70007D848C849B84AA84B984C884DF80EE80AF
:101D8000FD800C811B81AA81B981CE0FD11D0FB6B8
:101D9000F894DEBF0FBECDBFED010895A1E21A2E6B
:101DA000AA1BBB1BFD010DC0AA1FBB1FEE1FFF1FFF
:101DB000A217B307E407F50720F0A21BB30BE40B4F
:101DC000F50B661F771F881F991F1A9469F7609596
:101DD0007095809590959B01AC01BD01CF01089550
:101DE000DF93CF939F92A0E49A2E0024D001E001CC
:101DF000F00116950795F794E794D794C794B79494
:101E0000A79448F41068A20FB31FC41FD51FE61F84
:101E1000F71F081E191E220F331F441F551F661F70
:101E2000771F881F991F9A9421F79D01AE01BF016A
:101E3000C00111249F90CF91DF910895F894FFCFB6
:101E40003D393633302D2B2826242220010005056C
:101E50000505010105050505010103030301010154
:101E6000000000000000140000000000000000005E
:101E70000000000000000000000000000000000062
:101E80000000000000000000000000000000000052
:101E900000010000002A383C472F2F2F3E333C44DE
:101EA000232F2F4123472F2F2F3E32202F2F2F4418
:101EB0002B2F2F2F442B2F2F2F442B2F2F2F44230B
:101EC0002B2F2F412346232F2F2F44232F2F412306
:101ED000472F2F2F202F2F2F202020203E002A3861
:101EE00045334542424532454233424444414144F0
:101EF00034444133414132414533454141424243FB
:101F000034434233424141474745454242453245C9
:101F100042334244444141443444413341413241DB
:101F200045334541414242433443423342414142B9
:101F3000423E2000010305203B0200009220EB738B
:101F40007D5FDE3DA552EA7A14004A222229BA2E8C
:101F5000D0050014C0010020A4126A2B9A74A37249
:101F6000A338ED498F38CE2AA712AA2AAE49100409
:101F700010145444380E11152A250000EA5BEB3A80
:101F80004F726B3BCF73CF134F7AED5B9774247B0B
:101F90005D564972FD5B6F5B6F7BEF136F7FEF5791
:101FA000CE3897246D7B6D2BED5FAD5AAD24A772B3
:101FB0000340008003100380032000400020001035
:101FC0000008000400020001038003400320008099
:101FD0000310090B0002040507432B00430047418F
:101FE0004D45204F564552200053504143455920FE
:101FF00052454144592056312E36204259204D50E9
:062000004820004C000026
:00000001FF
