:100000000C943A000C9457000C9457000C94570031
:100010000C9457000C9457000C9457000C94570004
:100020000C9457000C9457000C9457000C945700F4
:100030000C9457000C9457000C9457000C945700E4
:100040000C9457000C9457000C9457000C945700D4
:100050000C9457000C9457000C9457000C945700C4
:100060000C9457000C9457000C9457000C945700B4
:100070000C94570011241FBECFEFD4E0DEBFCDBFDC
:1000800011E0A0E0B1E0ECE8FAE002C005900D92CA
:10009000A83CB107D9F711E0A8ECB1E001C01D926E
:1000A000A63DB107E1F70E94B4040C9444050C94FA
:1000B00000000C942904CF93DF9300D01F92CDB79A
:1000C000DEB78091CA01811105C01092C90110925A
:1000D000C80120C08091C8019091C9012AE030E098
:1000E000B9010E942105482FCB01B9010E942105C9
:1000F000805D8983405D4A831B82CE0101960E9408
:1001000005048091C8019091C90101969093C9019D
:100110008093C8010F900F900F90DF91CF910895B9
:100120000E94FF0080E00E94D100882331F080917E
:10013000CA0191E089278093CA010895E1E6F0E0C1
:1001400080E880831082A89584B7877F84BFE0E62B
:10015000F0E0808188618083108208951092800091
:1001600084E08093810010928500109284000895AD
:1001700080918400909185000895AC018091840065
:10018000909185009C01241B350B283E3340B0F72D
:1001900008952091840030918500820F931F0C9464
:1001A000BD0081110CC08091CB01882329F0809182
:1001B000CC0191E0892701C080E08170089580E042
:1001C000089581110AC08091CB01811103C08091F3
:1001D000CC0101C080E08170089580E00895811114
:1001E00003C08091CB01089580E00895811105C07E
:1001F0008091CB0191E08927089580E00895EBEC90
:10020000F1E080818093CC0189B1881F8827881F05
:100210008083089557985F9808958530A0F46730DB
:1002200090F421E030E0062E01C0220F0A94EAF794
:10023000E82FF0E0E253FE4F822F809590818923D2
:100240004111822B80830895853088F4673078F4DB
:10025000E82FF0E0E253FE4F21E030E0062E01C02F
:10026000220F0A94EAF79081922381E009F480E05A
:1002700008956091CD01E62FF0E0E253FE4F8081BA
:100280000E9488018091CD018F5F853018F48093A2
:10029000CD0108951092CD0108951092CE011092D3
:1002A000CF011092D0011092D1011092D201089585
:1002B0000E9466010C944D01FC01FF2784A1892B4B
:1002C00084A385A1892B85A381E00895CF93DF9333
:1002D000C7EBD1E0899199910E945C0181E0C53C16
:1002E000D807C1F783E090E40E945C0180E090E8C9
:1002F0000E945C0183E090E10E945C0183E090E851
:100300000E945C0183E090E2DF91CF910C945C014C
:10031000E091D301F0E0EE0FFF1FE355FE4F208187
:100320003181F901FF2795A1932B95A3E7EBF1E02C
:1003300020813181D901BB2780FF07C095962C9180
:100340009597932F9095922304C095969C9195979D
:10035000932B95969C938695329691E0E53CF90710
:1003600039F7E62FF0E0EE0FFF1FE355FE4F8081D7
:100370009181FC01FF2725A1892F8095822385A3E8
:100380006093D3010895009789F0FC012381621BDB
:1003900067FD09C0772767FD7095248130E081E013
:1003A000621773070CF080E08170089580E0089573
:1003B000CF93DF93FC01822F309789F19181491708
:1003C00070F52281821758F52381621B67FD27C0D3
:1003D000A62FBB27A7FDB095C481D0E0AC17BD0701
:1003E000F4F4692F0E940705480F658170E0CD0184
:1003F0000E941005DC011696842F869586958695B9
:10040000AE0FBF1FA80FB11D2C9130E0477002C086
:10041000359527954A95E2F7822F817001C080E0DB
:10042000DF91CF910895182F092FF62E0E94AE006C
:100430000E94B800C12FD02F8E819F810E94BD00E5
:10044000E881F9818A819B8109952E813F818C8188
:100450009D81280F391F3F832E830E94B800E12F12
:10046000F02F2FEF3FEF60E06F1531F3AE2F7F2FAE
:10047000468157816C01C41AD50AA601BFEFCB167D
:10048000BFE7DB0610F4EF01D7CF51954195510935
:100490004217530718F0A901AC2F7D2F6F5F3896D4
:1004A0009A01CA2FD72FE0CF41E0611101C040E08F
:1004B000692F0C940D01692F0C94240141E0611106
:1004C00001C040E0692F0C940D016F927F928F92D2
:1004D0009F92AF92BF92CF92DF92EF92FF920F93D3
:1004E0001F93CF93DF931F92CDB7DEB7862EB42E26
:1004F0006C01862F992787FD90958C199109C7FC6F
:100500009395072F112707FD10950D191109D7FC99
:10051000139597FD03C0AA24A39402C0AA24AA9409
:1005200017FD03C09924939402C099249A943C0126
:1005300097FF03C071946194710817FF03C0119570
:10054000019511096016710694F07301F594E79412
:10055000C81409F16B2DC6010E945E02E01AF10A6F
:10056000F7FE03C0E60CF71CD90CCA0CF1CF7801DA
:10057000F594E794D71679F06B2DC60179830E9424
:100580005E02E618F7087981F7FE03C0E00EF11E5F
:10059000CA0CD90CEFCF6B2DC6010F90DF91CF9114
:1005A0001F910F91FF90EF90DF90CF90BF90AF9091
:1005B0009F908F907F906F900C945E02FF920F93AC
:1005C0001F93CF93DF93182FF92E062FC72FD42F09
:1005D000792F0E9465024D2F612F7C2F812F9F2D37
:1005E0000E9465024D2F602F7C2F802F9F2D0E942F
:1005F00065024D2F602F7C2F812F9C2F0E9465025A
:10060000DF91CF911F910F91FF9008950E944D01AE
:100610001092110110920C010895DF92EF92FF9257
:100620000F931F93CF93DF93E82E8B01F62ED12EDD
:100630002091020130910301D0E02130310599F57C
:10064000D12EDD1AE0910801F09109018181C0E00D
:10065000D817B8F4E0910801F09109018281C81718
:1006600070F42C2F4D2F6E2DCF010E94D801682FD2
:100670008C2F800F9D2D0E945E02CF5FEBCFDF5F3E
:10068000DFCFE0910801F09109018281C81740F4A1
:1006900060E08C2F800F9D2D0E945E02CF5FF1CF16
:1006A000DA9430C0DF5FFD2EF00EE0910801F0918A
:1006B00009018181C0E0D817A8F4E0910801F09108
:1006C00009018281C81770F72C2F4D2F6E2DCF0195
:1006D0000E94D801682F8F2D9C2F910F0E945E02DF
:1006E000CF5FEBCFE0910801F09109018281C8173B
:1006F00040F460E08F2D9C2F910F0E945E02CF5F2F
:10070000F1CFF3948F2D9D2DDF91CF911F910F91FC
:10071000FF90EF90DF9008951F93CF93DF93182FF2
:10072000EC019C2F911B8991882349F00E940D03B5
:10073000BC019C2F911B653014F477FFF2CF892FF9
:10074000DF91CF911F9108950F931F93CF93DF9364
:10075000EC019B0110920C0140930D0110921001CD
:1007600000910801109109010115110509F448C013
:10077000F8018181609106017091070190E00E946B
:100780001005BC0180910A0190910B010E94210586
:10079000CB016AE070E00E94100590930F018093F6
:1007A0000E01309305012093040140E250E0BE01A8
:1007B00081E191E00E943505809100019091010155
:1007C0000197F1F4FE0101900020E9F7CF010197B4
:1007D000F801618170E06F5F7F4F8C1B0E940705FD
:1007E000815020910201309103012130310511F433
:1007F00097E001C095E0981718F48EEF80931001F0
:10080000DF91CF911F910F910895209102013091B6
:1008100003012130310511F476E001C070E04FEFA3
:1008200060E00E94A403089590E0909307018093F4
:10083000060108959093010180930001089590931B
:1008400003018093020108959093090180930801A8
:100850000895CF938091D4019091D5010196909302
:10086000D5018093D40120910E0130910F018217A0
:10087000930708F468C01092D5011092D401E0915A
:100880000C01F0E0E050FF4F818981110AC0809196
:100890000D01823008F457C0815080930D011092F1
:1008A0000C01C0910C018C2F90E0FC01E050FF4F37
:1008B0002189222309F447C02091000130910101D0
:1008C000409110012115310521F02130310589F0C9
:1008D00022C0411120C060910401709105018F5E1A
:1008E0009E4F0E948C039FEF9C0F980F90930C01DA
:1008F00012C06091040170910501209102013091B4
:1009000003012130310511F4740F01C0641B8F5EA7
:100910009E4F0E948C03209110012F5F20931001A5
:10092000332727FD3095E0910801F091090181817D
:1009300090E0821793073CF41092100180910C0113
:100940008F5F80930C01CF910C94390190930B0130
:1009500080930A010E94580184E190E0909307017E
:10096000809306010C9406030F931F93CF93DF939C
:10097000CDB7DEB768970FB6F894DEBF0FBECDBF18
:100980008E010F5F1F4F88E1F80111928A95E9F7F8
:1009900089E590E09A8389838DE790E09E838D833B
:1009A00080E990E09A87898788E391E09E878D8728
:1009B0002BE530E03A8B298B9E8B8D8B0E949E001D
:1009C0008AEF90E00E94A60481E391E00E94240453
:1009D00080E090E00E941A0481E090E00E941F04F1
:1009E0000E940A0185EC91E00E94050463E0C801C1
:1009F0000E94130280E090E068960FB6F894DEBF84
:100A00000FBECDBFDF91CF911F910F9108950024AC
:100A100080FD060E660F11F08695D1F7802D0895A2
:100A20000024552704C0080E591F880F991F0097EE
:100A300029F076956795B8F37105B9F7802D952F54
:100A40000895AA1BBB1B51E107C0AA1FBB1FA61715
:100A5000B70710F0A61BB70B881F991F5A95A9F767
:100A600080959095BC01CD010895FB01DC014150BA
:100A7000504048F001900D920020C9F701C01D922E
:0C0A800041505040E0F70895F894FFCF7B
:100A8C000000000000001400000000000000000046
:100A9C00000000000000000000000000000000004A
:100AAC00000000000000000000000000000000003A
:100ABC0000010305203B0200009220EB737D5FDEFA
:100ACC003DA552EA7A14004A222229BA2ED00500FA
:100ADC0014C0010020A4126A2B9A74A372A338EDDF
:100AEC00498F38CE2AA712AA2AAE491004101454E2
:100AFC0044380E11152A250000EA5BEB3A4F726B55
:100B0C003BCF73CF134F7AED5B9774247B5D5649C3
:100B1C0072FD5B6F5B6F7BEF136F7FEF57CE389778
:100B2C00246D7B6D2BED5FAD5AAD24A77203400095
:100B3C0080031003800320004000200010000800F8
:080B4C0004000200013030003A
:00000001FF
